{
  "_format": "hh-sol-artifact-1",
  "contractName": "Auction",
  "sourceName": "contracts/Auction.sol",
  "abi": [
    {
      "inputs": [],
      "stateMutability": "nonpayable",
      "type": "constructor"
    },
    {
      "anonymous": false,
      "inputs": [
        {
          "indexed": false,
          "internalType": "uint256",
          "name": "id",
          "type": "uint256"
        },
        {
          "indexed": false,
          "internalType": "string",
          "name": "itemDetails",
          "type": "string"
        }
      ],
      "name": "AuctionCreated",
      "type": "event"
    },
    {
      "anonymous": false,
      "inputs": [
        {
          "indexed": false,
          "internalType": "uint256",
          "name": "auctionId",
          "type": "uint256"
        },
        {
          "indexed": false,
          "internalType": "address",
          "name": "winner",
          "type": "address"
        },
        {
          "indexed": false,
          "internalType": "uint256",
          "name": "winningBid",
          "type": "uint256"
        }
      ],
      "name": "AuctionFinalized",
      "type": "event"
    },
    {
      "anonymous": false,
      "inputs": [
        {
          "indexed": false,
          "internalType": "uint256",
          "name": "auctionId",
          "type": "uint256"
        },
        {
          "indexed": false,
          "internalType": "address",
          "name": "bidder",
          "type": "address"
        },
        {
          "indexed": false,
          "internalType": "uint256",
          "name": "bid",
          "type": "uint256"
        }
      ],
      "name": "NewBid",
      "type": "event"
    },
    {
      "anonymous": false,
      "inputs": [
        {
          "indexed": true,
          "internalType": "bytes32",
          "name": "role",
          "type": "bytes32"
        },
        {
          "indexed": true,
          "internalType": "bytes32",
          "name": "previousAdminRole",
          "type": "bytes32"
        },
        {
          "indexed": true,
          "internalType": "bytes32",
          "name": "newAdminRole",
          "type": "bytes32"
        }
      ],
      "name": "RoleAdminChanged",
      "type": "event"
    },
    {
      "anonymous": false,
      "inputs": [
        {
          "indexed": true,
          "internalType": "bytes32",
          "name": "role",
          "type": "bytes32"
        },
        {
          "indexed": true,
          "internalType": "address",
          "name": "account",
          "type": "address"
        },
        {
          "indexed": true,
          "internalType": "address",
          "name": "sender",
          "type": "address"
        }
      ],
      "name": "RoleGranted",
      "type": "event"
    },
    {
      "anonymous": false,
      "inputs": [
        {
          "indexed": true,
          "internalType": "bytes32",
          "name": "role",
          "type": "bytes32"
        },
        {
          "indexed": true,
          "internalType": "address",
          "name": "account",
          "type": "address"
        },
        {
          "indexed": true,
          "internalType": "address",
          "name": "sender",
          "type": "address"
        }
      ],
      "name": "RoleRevoked",
      "type": "event"
    },
    {
      "inputs": [],
      "name": "ADMIN_ROLE",
      "outputs": [
        {
          "internalType": "bytes32",
          "name": "",
          "type": "bytes32"
        }
      ],
      "stateMutability": "view",
      "type": "function"
    },
    {
      "inputs": [],
      "name": "DEFAULT_ADMIN_ROLE",
      "outputs": [
        {
          "internalType": "bytes32",
          "name": "",
          "type": "bytes32"
        }
      ],
      "stateMutability": "view",
      "type": "function"
    },
    {
      "inputs": [
        {
          "internalType": "uint256",
          "name": "",
          "type": "uint256"
        }
      ],
      "name": "auctions",
      "outputs": [
        {
          "internalType": "uint256",
          "name": "id",
          "type": "uint256"
        },
        {
          "internalType": "string",
          "name": "itemDetails",
          "type": "string"
        },
        {
          "internalType": "address",
          "name": "highestBidder",
          "type": "address"
        },
        {
          "internalType": "uint256",
          "name": "highestBid",
          "type": "uint256"
        },
        {
          "internalType": "bool",
          "name": "finalized",
          "type": "bool"
        }
      ],
      "stateMutability": "view",
      "type": "function"
    },
    {
      "inputs": [
        {
          "internalType": "string",
          "name": "itemDetails",
          "type": "string"
        }
      ],
      "name": "createAuction",
      "outputs": [],
      "stateMutability": "nonpayable",
      "type": "function"
    },
    {
      "inputs": [
        {
          "internalType": "uint256",
          "name": "auctionId",
          "type": "uint256"
        }
      ],
      "name": "finalizeAuction",
      "outputs": [],
      "stateMutability": "nonpayable",
      "type": "function"
    },
    {
      "inputs": [
        {
          "internalType": "bytes32",
          "name": "role",
          "type": "bytes32"
        }
      ],
      "name": "getRoleAdmin",
      "outputs": [
        {
          "internalType": "bytes32",
          "name": "",
          "type": "bytes32"
        }
      ],
      "stateMutability": "view",
      "type": "function"
    },
    {
      "inputs": [
        {
          "internalType": "bytes32",
          "name": "role",
          "type": "bytes32"
        },
        {
          "internalType": "address",
          "name": "account",
          "type": "address"
        }
      ],
      "name": "grantRole",
      "outputs": [],
      "stateMutability": "nonpayable",
      "type": "function"
    },
    {
      "inputs": [
        {
          "internalType": "bytes32",
          "name": "role",
          "type": "bytes32"
        },
        {
          "internalType": "address",
          "name": "account",
          "type": "address"
        }
      ],
      "name": "hasRole",
      "outputs": [
        {
          "internalType": "bool",
          "name": "",
          "type": "bool"
        }
      ],
      "stateMutability": "view",
      "type": "function"
    },
    {
      "inputs": [],
      "name": "nextAuctionId",
      "outputs": [
        {
          "internalType": "uint256",
          "name": "",
          "type": "uint256"
        }
      ],
      "stateMutability": "view",
      "type": "function"
    },
    {
      "inputs": [
        {
          "internalType": "uint256",
          "name": "auctionId",
          "type": "uint256"
        }
      ],
      "name": "placeBid",
      "outputs": [],
      "stateMutability": "payable",
      "type": "function"
    },
    {
      "inputs": [
        {
          "internalType": "bytes32",
          "name": "role",
          "type": "bytes32"
        },
        {
          "internalType": "address",
          "name": "account",
          "type": "address"
        }
      ],
      "name": "renounceRole",
      "outputs": [],
      "stateMutability": "nonpayable",
      "type": "function"
    },
    {
      "inputs": [
        {
          "internalType": "bytes32",
          "name": "role",
          "type": "bytes32"
        },
        {
          "internalType": "address",
          "name": "account",
          "type": "address"
        }
      ],
      "name": "revokeRole",
      "outputs": [],
      "stateMutability": "nonpayable",
      "type": "function"
    },
    {
      "inputs": [
        {
          "internalType": "bytes4",
          "name": "interfaceId",
          "type": "bytes4"
        }
      ],
      "name": "supportsInterface",
      "outputs": [
        {
          "internalType": "bool",
          "name": "",
          "type": "bool"
        }
      ],
      "stateMutability": "view",
      "type": "function"
    }
  ],
  "bytecode": "0x60806040523480156200001157600080fd5b50620000447fa49807205ce4d355092ef5a8a18f56e8913cf4a201fbe287825b095693c21775336200004a60201b60201c565b620001c3565b6200005c82826200006060201b60201c565b5050565b6200007282826200015160201b60201c565b6200014d57600160008084815260200190815260200160002060000160008373ffffffffffffffffffffffffffffffffffffffff1673ffffffffffffffffffffffffffffffffffffffff16815260200190815260200160002060006101000a81548160ff021916908315150217905550620000f2620001bb60201b60201c565b73ffffffffffffffffffffffffffffffffffffffff168173ffffffffffffffffffffffffffffffffffffffff16837f2f8788117e7eff1d82e926ec794901d17c78024a50270940304540a733656f0d60405160405180910390a45b5050565b600080600084815260200190815260200160002060000160008373ffffffffffffffffffffffffffffffffffffffff1673ffffffffffffffffffffffffffffffffffffffff16815260200190815260200160002060009054906101000a900460ff16905092915050565b600033905090565b611b7080620001d36000396000f3fe6080604052600436106100c25760003560e01c80638e27cb251161007f578063a217fddf11610059578063a217fddf14610281578063d547741f146102ac578063e8083863146102d5578063fc528482146102fe576100c2565b80638e27cb25146101ff57806391d14854146102285780639979ef4514610265576100c2565b806301ffc9a7146100c7578063248a9ca3146101045780632f2ff15d1461014157806336568abe1461016a578063571a26a01461019357806375b238fc146101d4575b600080fd5b3480156100d357600080fd5b506100ee60048036038101906100e991906112eb565b610329565b6040516100fb9190611561565b60405180910390f35b34801561011057600080fd5b5061012b60048036038101906101269190611286565b6103a3565b604051610138919061157c565b60405180910390f35b34801561014d57600080fd5b50610168600480360381019061016391906112af565b6103c2565b005b34801561017657600080fd5b50610191600480360381019061018c91906112af565b6103e3565b005b34801561019f57600080fd5b506101ba60048036038101906101b59190611359565b610466565b6040516101cb9594939291906116bd565b60405180910390f35b3480156101e057600080fd5b506101e9610551565b6040516101f6919061157c565b60405180910390f35b34801561020b57600080fd5b5061022660048036038101906102219190611314565b610575565b005b34801561023457600080fd5b5061024f600480360381019061024a91906112af565b610731565b60405161025c9190611561565b60405180910390f35b61027f600480360381019061027a9190611359565b61079b565b005b34801561028d57600080fd5b5061029661099d565b6040516102a3919061157c565b60405180910390f35b3480156102b857600080fd5b506102d360048036038101906102ce91906112af565b6109a4565b005b3480156102e157600080fd5b506102fc60048036038101906102f79190611359565b6109c5565b005b34801561030a57600080fd5b50610313610b4c565b6040516103209190611639565b60405180910390f35b60007f7965db0b000000000000000000000000000000000000000000000000000000007bffffffffffffffffffffffffffffffffffffffffffffffffffffffff1916827bffffffffffffffffffffffffffffffffffffffffffffffffffffffff1916148061039c575061039b82610b52565b5b9050919050565b6000806000838152602001908152602001600020600101549050919050565b6103cb826103a3565b6103d481610bbc565b6103de8383610bd0565b505050565b6103eb610cb0565b73ffffffffffffffffffffffffffffffffffffffff168173ffffffffffffffffffffffffffffffffffffffff1614610458576040517f08c379a000000000000000000000000000000000000000000000000000000000815260040161044f90611619565b60405180910390fd5b6104628282610cb8565b5050565b600260205280600052604060002060009150905080600001549080600101805461048f906118d8565b80601f01602080910402602001604051908101604052809291908181526020018280546104bb906118d8565b80156105085780601f106104dd57610100808354040283529160200191610508565b820191906000526020600020905b8154815290600101906020018083116104eb57829003601f168201915b5050505050908060020160009054906101000a900473ffffffffffffffffffffffffffffffffffffffff16908060030154908060040160009054906101000a900460ff16905085565b7fa49807205ce4d355092ef5a8a18f56e8913cf4a201fbe287825b095693c2177581565b7fa49807205ce4d355092ef5a8a18f56e8913cf4a201fbe287825b095693c2177561059f81610bbc565b6040518060a00160405280600154815260200184848080601f016020809104026020016040519081016040528093929190818152602001838380828437600081840152601f19601f820116905080830192505050505050508152602001600073ffffffffffffffffffffffffffffffffffffffff1681526020016000815260200160001515815250600260006001548152602001908152602001600020600082015181600001556020820151816001019080519060200190610662929190611145565b5060408201518160020160006101000a81548173ffffffffffffffffffffffffffffffffffffffff021916908373ffffffffffffffffffffffffffffffffffffffff1602179055506060820151816003015560808201518160040160006101000a81548160ff0219169083151502179055509050507f84dbbe572fcd8281f88fbf55359ad5039443609c2304288d3c8816dd3bb9fc21600154848460405161070c9392919061168b565b60405180910390a1600160008154809291906107279061190a565b9190505550505050565b600080600084815260200190815260200160002060000160008373ffffffffffffffffffffffffffffffffffffffff1673ffffffffffffffffffffffffffffffffffffffff16815260200190815260200160002060009054906101000a900460ff16905092915050565b6000600260008381526020019081526020016000209050806003015434116107f8576040517f08c379a00000000000000000000000000000000000000000000000000000000081526004016107ef906115d9565b60405180910390fd5b8060040160009054906101000a900460ff161561084a576040517f08c379a0000000000000000000000000000000000000000000000000000000008152600401610841906115f9565b60405180910390fd5b600073ffffffffffffffffffffffffffffffffffffffff168160020160009054906101000a900473ffffffffffffffffffffffffffffffffffffffff1673ffffffffffffffffffffffffffffffffffffffff1614610912578060020160009054906101000a900473ffffffffffffffffffffffffffffffffffffffff1673ffffffffffffffffffffffffffffffffffffffff166108fc82600301549081150290604051600060405180830381858888f19350505050158015610910573d6000803e3d6000fd5b505b338160020160006101000a81548173ffffffffffffffffffffffffffffffffffffffff021916908373ffffffffffffffffffffffffffffffffffffffff1602179055503481600301819055507f558a0d5d5468d74b0db24c74eb348b42271c2ebb4c9e953ced38aaed95fa436182333460405161099193929190611654565b60405180910390a15050565b6000801b81565b6109ad826103a3565b6109b681610bbc565b6109c08383610cb8565b505050565b7fa49807205ce4d355092ef5a8a18f56e8913cf4a201fbe287825b095693c217756109ef81610bbc565b60006002600084815260200190815260200160002090508060040160009054906101000a900460ff1615610a58576040517f08c379a0000000000000000000000000000000000000000000000000000000008152600401610a4f906115f9565b60405180910390fd5b60018160040160006101000a81548160ff0219169083151502179055508060020160009054906101000a900473ffffffffffffffffffffffffffffffffffffffff1673ffffffffffffffffffffffffffffffffffffffff166108fc82600301549081150290604051600060405180830381858888f19350505050158015610ae3573d6000803e3d6000fd5b507f4d9113a1377d665eaa1f9168a9c9080f2e488cb820b10149de3d6d2e0f2780c7838260020160009054906101000a900473ffffffffffffffffffffffffffffffffffffffff168360030154604051610b3f93929190611654565b60405180910390a1505050565b60015481565b60007f01ffc9a7000000000000000000000000000000000000000000000000000000007bffffffffffffffffffffffffffffffffffffffffffffffffffffffff1916827bffffffffffffffffffffffffffffffffffffffffffffffffffffffff1916149050919050565b610bcd81610bc8610cb0565b610d99565b50565b610bda8282610731565b610cac57600160008084815260200190815260200160002060000160008373ffffffffffffffffffffffffffffffffffffffff1673ffffffffffffffffffffffffffffffffffffffff16815260200190815260200160002060006101000a81548160ff021916908315150217905550610c51610cb0565b73ffffffffffffffffffffffffffffffffffffffff168173ffffffffffffffffffffffffffffffffffffffff16837f2f8788117e7eff1d82e926ec794901d17c78024a50270940304540a733656f0d60405160405180910390a45b5050565b600033905090565b610cc28282610731565b15610d9557600080600084815260200190815260200160002060000160008373ffffffffffffffffffffffffffffffffffffffff1673ffffffffffffffffffffffffffffffffffffffff16815260200190815260200160002060006101000a81548160ff021916908315150217905550610d3a610cb0565b73ffffffffffffffffffffffffffffffffffffffff168173ffffffffffffffffffffffffffffffffffffffff16837ff6391f5c32d9c69d2a47ea670b442974b53935d1edc7fd64eb21e047a839171b60405160405180910390a45b5050565b610da38282610731565b610e1a57610db081610e1e565b610dbe8360001c6020610e4b565b604051602001610dcf929190611527565b6040516020818303038152906040526040517f08c379a0000000000000000000000000000000000000000000000000000000008152600401610e119190611597565b60405180910390fd5b5050565b6060610e448273ffffffffffffffffffffffffffffffffffffffff16601460ff16610e4b565b9050919050565b606060006002836002610e5e9190611794565b610e68919061173e565b67ffffffffffffffff811115610ea7577f4e487b7100000000000000000000000000000000000000000000000000000000600052604160045260246000fd5b6040519080825280601f01601f191660200182016040528015610ed95781602001600182028036833780820191505090505b5090507f300000000000000000000000000000000000000000000000000000000000000081600081518110610f37577f4e487b7100000000000000000000000000000000000000000000000000000000600052603260045260246000fd5b60200101907effffffffffffffffffffffffffffffffffffffffffffffffffffffffffffff1916908160001a9053507f780000000000000000000000000000000000000000000000000000000000000081600181518110610fc1577f4e487b7100000000000000000000000000000000000000000000000000000000600052603260045260246000fd5b60200101907effffffffffffffffffffffffffffffffffffffffffffffffffffffffffffff1916908160001a905350600060018460026110019190611794565b61100b919061173e565b90505b60018111156110f7577f3031323334353637383961626364656600000000000000000000000000000000600f861660108110611073577f4e487b7100000000000000000000000000000000000000000000000000000000600052603260045260246000fd5b1a60f81b8282815181106110b0577f4e487b7100000000000000000000000000000000000000000000000000000000600052603260045260246000fd5b60200101907effffffffffffffffffffffffffffffffffffffffffffffffffffffffffffff1916908160001a905350600485901c9450806110f0906118ae565b905061100e565b506000841461113b576040517f08c379a0000000000000000000000000000000000000000000000000000000008152600401611132906115b9565b60405180910390fd5b8091505092915050565b828054611151906118d8565b90600052602060002090601f01602090048101928261117357600085556111ba565b82601f1061118c57805160ff19168380011785556111ba565b828001600101855582156111ba579182015b828111156111b957825182559160200191906001019061119e565b5b5090506111c791906111cb565b5090565b5b808211156111e45760008160009055506001016111cc565b5090565b6000813590506111f781611ade565b92915050565b60008135905061120c81611af5565b92915050565b60008135905061122181611b0c565b92915050565b60008083601f84011261123957600080fd5b8235905067ffffffffffffffff81111561125257600080fd5b60208301915083600182028301111561126a57600080fd5b9250929050565b60008135905061128081611b23565b92915050565b60006020828403121561129857600080fd5b60006112a6848285016111fd565b91505092915050565b600080604083850312156112c257600080fd5b60006112d0858286016111fd565b92505060206112e1858286016111e8565b9150509250929050565b6000602082840312156112fd57600080fd5b600061130b84828501611212565b91505092915050565b6000806020838503121561132757600080fd5b600083013567ffffffffffffffff81111561134157600080fd5b61134d85828601611227565b92509250509250929050565b60006020828403121561136b57600080fd5b600061137984828501611271565b91505092915050565b61138b816117ee565b82525050565b61139a81611800565b82525050565b6113a98161180c565b82525050565b60006113bb8385611722565b93506113c883858461186c565b6113d1836119b1565b840190509392505050565b60006113e782611717565b6113f18185611722565b935061140181856020860161187b565b61140a816119b1565b840191505092915050565b600061142082611717565b61142a8185611733565b935061143a81856020860161187b565b80840191505092915050565b6000611453602083611722565b915061145e826119c2565b602082019050919050565b6000611476600b83611722565b9150611481826119eb565b602082019050919050565b6000611499601983611722565b91506114a482611a14565b602082019050919050565b60006114bc601783611733565b91506114c782611a3d565b601782019050919050565b60006114df601183611733565b91506114ea82611a66565b601182019050919050565b6000611502602f83611722565b915061150d82611a8f565b604082019050919050565b61152181611862565b82525050565b6000611532826114af565b915061153e8285611415565b9150611549826114d2565b91506115558284611415565b91508190509392505050565b60006020820190506115766000830184611391565b92915050565b600060208201905061159160008301846113a0565b92915050565b600060208201905081810360008301526115b181846113dc565b905092915050565b600060208201905081810360008301526115d281611446565b9050919050565b600060208201905081810360008301526115f281611469565b9050919050565b600060208201905081810360008301526116128161148c565b9050919050565b60006020820190508181036000830152611632816114f5565b9050919050565b600060208201905061164e6000830184611518565b92915050565b60006060820190506116696000830186611518565b6116766020830185611382565b6116836040830184611518565b949350505050565b60006040820190506116a06000830186611518565b81810360208301526116b38184866113af565b9050949350505050565b600060a0820190506116d26000830188611518565b81810360208301526116e481876113dc565b90506116f36040830186611382565b6117006060830185611518565b61170d6080830184611391565b9695505050505050565b600081519050919050565b600082825260208201905092915050565b600081905092915050565b600061174982611862565b915061175483611862565b9250827fffffffffffffffffffffffffffffffffffffffffffffffffffffffffffffffff0382111561178957611788611953565b5b828201905092915050565b600061179f82611862565b91506117aa83611862565b9250817fffffffffffffffffffffffffffffffffffffffffffffffffffffffffffffffff04831182151516156117e3576117e2611953565b5b828202905092915050565b60006117f982611842565b9050919050565b60008115159050919050565b6000819050919050565b60007fffffffff0000000000000000000000000000000000000000000000000000000082169050919050565b600073ffffffffffffffffffffffffffffffffffffffff82169050919050565b6000819050919050565b82818337600083830152505050565b60005b8381101561189957808201518184015260208101905061187e565b838111156118a8576000848401525b50505050565b60006118b982611862565b915060008214156118cd576118cc611953565b5b600182039050919050565b600060028204905060018216806118f057607f821691505b6020821081141561190457611903611982565b5b50919050565b600061191582611862565b91507fffffffffffffffffffffffffffffffffffffffffffffffffffffffffffffffff82141561194857611947611953565b5b600182019050919050565b7f4e487b7100000000000000000000000000000000000000000000000000000000600052601160045260246000fd5b7f4e487b7100000000000000000000000000000000000000000000000000000000600052602260045260246000fd5b6000601f19601f8301169050919050565b7f537472696e67733a20686578206c656e67746820696e73756666696369656e74600082015250565b7f42696420746f6f206c6f77000000000000000000000000000000000000000000600082015250565b7f41756374696f6e20616c72656164792066696e616c697a656400000000000000600082015250565b7f416363657373436f6e74726f6c3a206163636f756e7420000000000000000000600082015250565b7f206973206d697373696e6720726f6c6520000000000000000000000000000000600082015250565b7f416363657373436f6e74726f6c3a2063616e206f6e6c792072656e6f756e636560008201527f20726f6c657320666f722073656c660000000000000000000000000000000000602082015250565b611ae7816117ee565b8114611af257600080fd5b50565b611afe8161180c565b8114611b0957600080fd5b50565b611b1581611816565b8114611b2057600080fd5b50565b611b2c81611862565b8114611b3757600080fd5b5056fea26469706673582212209dd52023d1e0c17de5592e56a9815b7887ae5dbc19be71f34eb7091cbb5d3ecb64736f6c63430008040033",
  "linkReferences": {},
  "deployedLinkReferences": {}
}