{
  "_format": "hh-sol-artifact-1",
  "contractName": "WorkOrderManagement",
  "sourceName": "contracts/WorkOrderManagement.sol",
  "abi": [
    {
      "inputs": [],
      "stateMutability": "nonpayable",
      "type": "constructor"
    },
    {
      "anonymous": false,
      "inputs": [
        {
          "indexed": false,
          "internalType": "uint256",
          "name": "id",
          "type": "uint256"
        },
        {
          "indexed": false,
          "internalType": "string",
          "name": "certificateURL",
          "type": "string"
        }
      ],
      "name": "CertificateIssued",
      "type": "event"
    },
    {
      "anonymous": false,
      "inputs": [
        {
          "indexed": true,
          "internalType": "bytes32",
          "name": "role",
          "type": "bytes32"
        },
        {
          "indexed": true,
          "internalType": "bytes32",
          "name": "previousAdminRole",
          "type": "bytes32"
        },
        {
          "indexed": true,
          "internalType": "bytes32",
          "name": "newAdminRole",
          "type": "bytes32"
        }
      ],
      "name": "RoleAdminChanged",
      "type": "event"
    },
    {
      "anonymous": false,
      "inputs": [
        {
          "indexed": true,
          "internalType": "bytes32",
          "name": "role",
          "type": "bytes32"
        },
        {
          "indexed": true,
          "internalType": "address",
          "name": "account",
          "type": "address"
        },
        {
          "indexed": true,
          "internalType": "address",
          "name": "sender",
          "type": "address"
        }
      ],
      "name": "RoleGranted",
      "type": "event"
    },
    {
      "anonymous": false,
      "inputs": [
        {
          "indexed": true,
          "internalType": "bytes32",
          "name": "role",
          "type": "bytes32"
        },
        {
          "indexed": true,
          "internalType": "address",
          "name": "account",
          "type": "address"
        },
        {
          "indexed": true,
          "internalType": "address",
          "name": "sender",
          "type": "address"
        }
      ],
      "name": "RoleRevoked",
      "type": "event"
    },
    {
      "anonymous": false,
      "inputs": [
        {
          "indexed": false,
          "internalType": "uint256",
          "name": "id",
          "type": "uint256"
        },
        {
          "indexed": false,
          "internalType": "address",
          "name": "approver",
          "type": "address"
        }
      ],
      "name": "WorkOrderApproved",
      "type": "event"
    },
    {
      "anonymous": false,
      "inputs": [
        {
          "indexed": false,
          "internalType": "uint256",
          "name": "id",
          "type": "uint256"
        },
        {
          "indexed": false,
          "internalType": "string",
          "name": "description",
          "type": "string"
        },
        {
          "indexed": false,
          "internalType": "address",
          "name": "issuer",
          "type": "address"
        }
      ],
      "name": "WorkOrderCreated",
      "type": "event"
    },
    {
      "inputs": [],
      "name": "ADMIN_ROLE",
      "outputs": [
        {
          "internalType": "bytes32",
          "name": "",
          "type": "bytes32"
        }
      ],
      "stateMutability": "view",
      "type": "function"
    },
    {
      "inputs": [],
      "name": "DEFAULT_ADMIN_ROLE",
      "outputs": [
        {
          "internalType": "bytes32",
          "name": "",
          "type": "bytes32"
        }
      ],
      "stateMutability": "view",
      "type": "function"
    },
    {
      "inputs": [],
      "name": "DEPARTMENT_ROLE",
      "outputs": [
        {
          "internalType": "bytes32",
          "name": "",
          "type": "bytes32"
        }
      ],
      "stateMutability": "view",
      "type": "function"
    },
    {
      "inputs": [
        {
          "internalType": "uint256",
          "name": "_id",
          "type": "uint256"
        }
      ],
      "name": "approveWorkOrder",
      "outputs": [],
      "stateMutability": "nonpayable",
      "type": "function"
    },
    {
      "inputs": [
        {
          "internalType": "string",
          "name": "_description",
          "type": "string"
        }
      ],
      "name": "createWorkOrder",
      "outputs": [],
      "stateMutability": "nonpayable",
      "type": "function"
    },
    {
      "inputs": [],
      "name": "getAdminRole",
      "outputs": [
        {
          "internalType": "bytes32",
          "name": "",
          "type": "bytes32"
        }
      ],
      "stateMutability": "pure",
      "type": "function"
    },
    {
      "inputs": [],
      "name": "getDepartmentRole",
      "outputs": [
        {
          "internalType": "bytes32",
          "name": "",
          "type": "bytes32"
        }
      ],
      "stateMutability": "pure",
      "type": "function"
    },
    {
      "inputs": [
        {
          "internalType": "bytes32",
          "name": "role",
          "type": "bytes32"
        }
      ],
      "name": "getRoleAdmin",
      "outputs": [
        {
          "internalType": "bytes32",
          "name": "",
          "type": "bytes32"
        }
      ],
      "stateMutability": "view",
      "type": "function"
    },
    {
      "inputs": [
        {
          "internalType": "address",
          "name": "account",
          "type": "address"
        }
      ],
      "name": "grantDepartmentRole",
      "outputs": [],
      "stateMutability": "nonpayable",
      "type": "function"
    },
    {
      "inputs": [
        {
          "internalType": "bytes32",
          "name": "role",
          "type": "bytes32"
        },
        {
          "internalType": "address",
          "name": "account",
          "type": "address"
        }
      ],
      "name": "grantRole",
      "outputs": [],
      "stateMutability": "nonpayable",
      "type": "function"
    },
    {
      "inputs": [
        {
          "internalType": "bytes32",
          "name": "role",
          "type": "bytes32"
        },
        {
          "internalType": "address",
          "name": "account",
          "type": "address"
        }
      ],
      "name": "hasRole",
      "outputs": [
        {
          "internalType": "bool",
          "name": "",
          "type": "bool"
        }
      ],
      "stateMutability": "view",
      "type": "function"
    },
    {
      "inputs": [
        {
          "internalType": "uint256",
          "name": "_id",
          "type": "uint256"
        },
        {
          "internalType": "string",
          "name": "_certificateURL",
          "type": "string"
        }
      ],
      "name": "issueCertificate",
      "outputs": [],
      "stateMutability": "nonpayable",
      "type": "function"
    },
    {
      "inputs": [
        {
          "internalType": "bytes32",
          "name": "role",
          "type": "bytes32"
        },
        {
          "internalType": "address",
          "name": "account",
          "type": "address"
        }
      ],
      "name": "renounceRole",
      "outputs": [],
      "stateMutability": "nonpayable",
      "type": "function"
    },
    {
      "inputs": [
        {
          "internalType": "bytes32",
          "name": "role",
          "type": "bytes32"
        },
        {
          "internalType": "address",
          "name": "account",
          "type": "address"
        }
      ],
      "name": "revokeRole",
      "outputs": [],
      "stateMutability": "nonpayable",
      "type": "function"
    },
    {
      "inputs": [
        {
          "internalType": "bytes4",
          "name": "interfaceId",
          "type": "bytes4"
        }
      ],
      "name": "supportsInterface",
      "outputs": [
        {
          "internalType": "bool",
          "name": "",
          "type": "bool"
        }
      ],
      "stateMutability": "view",
      "type": "function"
    },
    {
      "inputs": [
        {
          "internalType": "uint256",
          "name": "",
          "type": "uint256"
        }
      ],
      "name": "workOrders",
      "outputs": [
        {
          "internalType": "uint256",
          "name": "id",
          "type": "uint256"
        },
        {
          "internalType": "string",
          "name": "description",
          "type": "string"
        },
        {
          "internalType": "address",
          "name": "issuer",
          "type": "address"
        },
        {
          "internalType": "bool",
          "name": "approved",
          "type": "bool"
        },
        {
          "internalType": "string",
          "name": "certificateURL",
          "type": "string"
        }
      ],
      "stateMutability": "view",
      "type": "function"
    }
  ],
  "bytecode": "0x60806040523480156200001157600080fd5b50620000276000801b336200009160201b60201c565b620000597fe7837d04f36ce0b2f3cc662bf1b2b632a7fbd12ae95199e8bd3dcfbcc440b66b336200009160201b60201c565b6200008b7fa49807205ce4d355092ef5a8a18f56e8913cf4a201fbe287825b095693c21775336200009160201b60201c565b6200020a565b620000a38282620000a760201b60201c565b5050565b620000b982826200019860201b60201c565b6200019457600160008084815260200190815260200160002060000160008373ffffffffffffffffffffffffffffffffffffffff1673ffffffffffffffffffffffffffffffffffffffff16815260200190815260200160002060006101000a81548160ff021916908315150217905550620001396200020260201b60201c565b73ffffffffffffffffffffffffffffffffffffffff168173ffffffffffffffffffffffffffffffffffffffff16837f2f8788117e7eff1d82e926ec794901d17c78024a50270940304540a733656f0d60405160405180910390a45b5050565b600080600084815260200190815260200160002060000160008373ffffffffffffffffffffffffffffffffffffffff1673ffffffffffffffffffffffffffffffffffffffff16815260200190815260200160002060009054906101000a900460ff16905092915050565b600033905090565b611bd5806200021a6000396000f3fe608060405234801561001057600080fd5b50600436106101005760003560e01c8063879b268e11610097578063b3ecf23611610066578063b3ecf23614610299578063c686c98d146102b7578063d24a4bc6146102eb578063d547741f1461030757610100565b8063879b268e1461021157806391d148541461022d578063996dc0221461025d578063a217fddf1461027b57610100565b8063248a9ca3116100d3578063248a9ca31461018b5780632f2ff15d146101bb57806336568abe146101d757806375b238fc146101f357610100565b806301ffc9a7146101055780630c816de4146101355780630ecd85071461015157806312fb59f21461016f575b600080fd5b61011f600480360381019061011a91906112a6565b610323565b60405161012c919061153f565b60405180910390f35b61014f600480360381019061014a9190611339565b61039d565b005b610159610487565b604051610166919061155a565b60405180910390f35b61018960048036038101906101849190611218565b6104af565b005b6101a560048036038101906101a09190611241565b6104ea565b6040516101b2919061155a565b60405180910390f35b6101d560048036038101906101d0919061126a565b610509565b005b6101f160048036038101906101ec919061126a565b61052a565b005b6101fb6105ad565b604051610208919061155a565b60405180910390f35b61022b60048036038101906102269190611310565b6105d1565b005b6102476004803603810190610242919061126a565b6106bf565b604051610254919061153f565b60405180910390f35b610265610729565b604051610272919061155a565b60405180910390f35b61028361074d565b604051610290919061155a565b60405180910390f35b6102a1610754565b6040516102ae919061155a565b60405180910390f35b6102d160048036038101906102cc9190611310565b61077c565b6040516102e29594939291906116ae565b60405180910390f35b610305600480360381019061030091906112cf565b6108ef565b005b610321600480360381019061031c919061126a565b610a81565b005b60007f7965db0b000000000000000000000000000000000000000000000000000000007bffffffffffffffffffffffffffffffffffffffffffffffffffffffff1916827bffffffffffffffffffffffffffffffffffffffffffffffffffffffff19161480610396575061039582610aa2565b5b9050919050565b7fa49807205ce4d355092ef5a8a18f56e8913cf4a201fbe287825b095693c217756103c781610b0c565b60006002600085815260200190815260200160002090508060020160149054906101000a900460ff1661042f576040517f08c379a0000000000000000000000000000000000000000000000000000000008152600401610426906115d7565b60405180910390fd5b828160030190805190602001906104479291906110b9565b507f82e047af96f6b7e5a52ea238aee0ca4188211301535ddf1fe126e140df6421b48484604051610479929190611640565b60405180910390a150505050565b60007fe7837d04f36ce0b2f3cc662bf1b2b632a7fbd12ae95199e8bd3dcfbcc440b66b905090565b6000801b6104bc81610b0c565b6104e67fe7837d04f36ce0b2f3cc662bf1b2b632a7fbd12ae95199e8bd3dcfbcc440b66b83610509565b5050565b6000806000838152602001908152602001600020600101549050919050565b610512826104ea565b61051b81610b0c565b6105258383610b20565b505050565b610532610c00565b73ffffffffffffffffffffffffffffffffffffffff168173ffffffffffffffffffffffffffffffffffffffff161461059f576040517f08c379a0000000000000000000000000000000000000000000000000000000008152600401610596906115f7565b60405180910390fd5b6105a98282610c08565b5050565b7fa49807205ce4d355092ef5a8a18f56e8913cf4a201fbe287825b095693c2177581565b7fa49807205ce4d355092ef5a8a18f56e8913cf4a201fbe287825b095693c217756105fb81610b0c565b60006002600084815260200190815260200160002090508060020160149054906101000a900460ff1615610664576040517f08c379a000000000000000000000000000000000000000000000000000000000815260040161065b906115b7565b60405180910390fd5b60018160020160146101000a81548160ff0219169083151502179055507fae429ad811c4c0844c3e8a6584619bd1daf0c6e00de8ffe5b6d2414d1f93e85083336040516106b2929190611617565b60405180910390a1505050565b600080600084815260200190815260200160002060000160008373ffffffffffffffffffffffffffffffffffffffff1673ffffffffffffffffffffffffffffffffffffffff16815260200190815260200160002060009054906101000a900460ff16905092915050565b7fe7837d04f36ce0b2f3cc662bf1b2b632a7fbd12ae95199e8bd3dcfbcc440b66b81565b6000801b81565b60007fa49807205ce4d355092ef5a8a18f56e8913cf4a201fbe287825b095693c21775905090565b60026020528060005260406000206000915090508060000154908060010180546107a590611926565b80601f01602080910402602001604051908101604052809291908181526020018280546107d190611926565b801561081e5780601f106107f35761010080835404028352916020019161081e565b820191906000526020600020905b81548152906001019060200180831161080157829003601f168201915b5050505050908060020160009054906101000a900473ffffffffffffffffffffffffffffffffffffffff16908060020160149054906101000a900460ff169080600301805461086c90611926565b80601f016020809104026020016040519081016040528092919081815260200182805461089890611926565b80156108e55780601f106108ba576101008083540402835291602001916108e5565b820191906000526020600020905b8154815290600101906020018083116108c857829003601f168201915b5050505050905085565b7fe7837d04f36ce0b2f3cc662bf1b2b632a7fbd12ae95199e8bd3dcfbcc440b66b61091981610b0c565b60006109256001610ce9565b90506109316001610cf7565b6040518060a001604052808281526020018481526020013373ffffffffffffffffffffffffffffffffffffffff16815260200160001515815260200160405180602001604052806000815250815250600260008381526020019081526020016000206000820151816000015560208201518160010190805190602001906109b99291906110b9565b5060408201518160020160006101000a81548173ffffffffffffffffffffffffffffffffffffffff021916908373ffffffffffffffffffffffffffffffffffffffff16021790555060608201518160020160146101000a81548160ff0219169083151502179055506080820151816003019080519060200190610a3d9291906110b9565b509050507fac25f2b2efefec9ad778452a05dbdafeef6c29131865faa62a2831067c6058f7818433604051610a7493929190611670565b60405180910390a1505050565b610a8a826104ea565b610a9381610b0c565b610a9d8383610c08565b505050565b60007f01ffc9a7000000000000000000000000000000000000000000000000000000007bffffffffffffffffffffffffffffffffffffffffffffffffffffffff1916827bffffffffffffffffffffffffffffffffffffffffffffffffffffffff1916149050919050565b610b1d81610b18610c00565b610d0d565b50565b610b2a82826106bf565b610bfc57600160008084815260200190815260200160002060000160008373ffffffffffffffffffffffffffffffffffffffff1673ffffffffffffffffffffffffffffffffffffffff16815260200190815260200160002060006101000a81548160ff021916908315150217905550610ba1610c00565b73ffffffffffffffffffffffffffffffffffffffff168173ffffffffffffffffffffffffffffffffffffffff16837f2f8788117e7eff1d82e926ec794901d17c78024a50270940304540a733656f0d60405160405180910390a45b5050565b600033905090565b610c1282826106bf565b15610ce557600080600084815260200190815260200160002060000160008373ffffffffffffffffffffffffffffffffffffffff1673ffffffffffffffffffffffffffffffffffffffff16815260200190815260200160002060006101000a81548160ff021916908315150217905550610c8a610c00565b73ffffffffffffffffffffffffffffffffffffffff168173ffffffffffffffffffffffffffffffffffffffff16837ff6391f5c32d9c69d2a47ea670b442974b53935d1edc7fd64eb21e047a839171b60405160405180910390a45b5050565b600081600001549050919050565b6001816000016000828254019250508190555050565b610d1782826106bf565b610d8e57610d2481610d92565b610d328360001c6020610dbf565b604051602001610d43929190611505565b6040516020818303038152906040526040517f08c379a0000000000000000000000000000000000000000000000000000000008152600401610d859190611575565b60405180910390fd5b5050565b6060610db88273ffffffffffffffffffffffffffffffffffffffff16601460ff16610dbf565b9050919050565b606060006002836002610dd291906117e2565b610ddc919061178c565b67ffffffffffffffff811115610e1b577f4e487b7100000000000000000000000000000000000000000000000000000000600052604160045260246000fd5b6040519080825280601f01601f191660200182016040528015610e4d5781602001600182028036833780820191505090505b5090507f300000000000000000000000000000000000000000000000000000000000000081600081518110610eab577f4e487b7100000000000000000000000000000000000000000000000000000000600052603260045260246000fd5b60200101907effffffffffffffffffffffffffffffffffffffffffffffffffffffffffffff1916908160001a9053507f780000000000000000000000000000000000000000000000000000000000000081600181518110610f35577f4e487b7100000000000000000000000000000000000000000000000000000000600052603260045260246000fd5b60200101907effffffffffffffffffffffffffffffffffffffffffffffffffffffffffffff1916908160001a90535060006001846002610f7591906117e2565b610f7f919061178c565b90505b600181111561106b577f3031323334353637383961626364656600000000000000000000000000000000600f861660108110610fe7577f4e487b7100000000000000000000000000000000000000000000000000000000600052603260045260246000fd5b1a60f81b828281518110611024577f4e487b7100000000000000000000000000000000000000000000000000000000600052603260045260246000fd5b60200101907effffffffffffffffffffffffffffffffffffffffffffffffffffffffffffff1916908160001a905350600485901c945080611064906118fc565b9050610f82565b50600084146110af576040517f08c379a00000000000000000000000000000000000000000000000000000000081526004016110a690611597565b60405180910390fd5b8091505092915050565b8280546110c590611926565b90600052602060002090601f0160209004810192826110e7576000855561112e565b82601f1061110057805160ff191683800117855561112e565b8280016001018555821561112e579182015b8281111561112d578251825591602001919060010190611112565b5b50905061113b919061113f565b5090565b5b80821115611158576000816000905550600101611140565b5090565b600061116f61116a84611734565b61170f565b90508281526020810184848401111561118757600080fd5b6111928482856118ba565b509392505050565b6000813590506111a981611b43565b92915050565b6000813590506111be81611b5a565b92915050565b6000813590506111d381611b71565b92915050565b600082601f8301126111ea57600080fd5b81356111fa84826020860161115c565b91505092915050565b60008135905061121281611b88565b92915050565b60006020828403121561122a57600080fd5b60006112388482850161119a565b91505092915050565b60006020828403121561125357600080fd5b6000611261848285016111af565b91505092915050565b6000806040838503121561127d57600080fd5b600061128b858286016111af565b925050602061129c8582860161119a565b9150509250929050565b6000602082840312156112b857600080fd5b60006112c6848285016111c4565b91505092915050565b6000602082840312156112e157600080fd5b600082013567ffffffffffffffff8111156112fb57600080fd5b611307848285016111d9565b91505092915050565b60006020828403121561132257600080fd5b600061133084828501611203565b91505092915050565b6000806040838503121561134c57600080fd5b600061135a85828601611203565b925050602083013567ffffffffffffffff81111561137757600080fd5b611383858286016111d9565b9150509250929050565b6113968161183c565b82525050565b6113a58161184e565b82525050565b6113b48161185a565b82525050565b60006113c582611765565b6113cf8185611770565b93506113df8185602086016118c9565b6113e881611a16565b840191505092915050565b60006113fe82611765565b6114088185611781565b93506114188185602086016118c9565b80840191505092915050565b6000611431602083611770565b915061143c82611a27565b602082019050919050565b6000611454601b83611770565b915061145f82611a50565b602082019050919050565b6000611477601783611770565b915061148282611a79565b602082019050919050565b600061149a601783611781565b91506114a582611aa2565b601782019050919050565b60006114bd601183611781565b91506114c882611acb565b601182019050919050565b60006114e0602f83611770565b91506114eb82611af4565b604082019050919050565b6114ff816118b0565b82525050565b60006115108261148d565b915061151c82856113f3565b9150611527826114b0565b915061153382846113f3565b91508190509392505050565b6000602082019050611554600083018461139c565b92915050565b600060208201905061156f60008301846113ab565b92915050565b6000602082019050818103600083015261158f81846113ba565b905092915050565b600060208201905081810360008301526115b081611424565b9050919050565b600060208201905081810360008301526115d081611447565b9050919050565b600060208201905081810360008301526115f08161146a565b9050919050565b60006020820190508181036000830152611610816114d3565b9050919050565b600060408201905061162c60008301856114f6565b611639602083018461138d565b9392505050565b600060408201905061165560008301856114f6565b818103602083015261166781846113ba565b90509392505050565b600060608201905061168560008301866114f6565b818103602083015261169781856113ba565b90506116a6604083018461138d565b949350505050565b600060a0820190506116c360008301886114f6565b81810360208301526116d581876113ba565b90506116e4604083018661138d565b6116f1606083018561139c565b818103608083015261170381846113ba565b90509695505050505050565b600061171961172a565b90506117258282611958565b919050565b6000604051905090565b600067ffffffffffffffff82111561174f5761174e6119e7565b5b61175882611a16565b9050602081019050919050565b600081519050919050565b600082825260208201905092915050565b600081905092915050565b6000611797826118b0565b91506117a2836118b0565b9250827fffffffffffffffffffffffffffffffffffffffffffffffffffffffffffffffff038211156117d7576117d6611989565b5b828201905092915050565b60006117ed826118b0565b91506117f8836118b0565b9250817fffffffffffffffffffffffffffffffffffffffffffffffffffffffffffffffff048311821515161561183157611830611989565b5b828202905092915050565b600061184782611890565b9050919050565b60008115159050919050565b6000819050919050565b60007fffffffff0000000000000000000000000000000000000000000000000000000082169050919050565b600073ffffffffffffffffffffffffffffffffffffffff82169050919050565b6000819050919050565b82818337600083830152505050565b60005b838110156118e75780820151818401526020810190506118cc565b838111156118f6576000848401525b50505050565b6000611907826118b0565b9150600082141561191b5761191a611989565b5b600182039050919050565b6000600282049050600182168061193e57607f821691505b60208210811415611952576119516119b8565b5b50919050565b61196182611a16565b810181811067ffffffffffffffff821117156119805761197f6119e7565b5b80604052505050565b7f4e487b7100000000000000000000000000000000000000000000000000000000600052601160045260246000fd5b7f4e487b7100000000000000000000000000000000000000000000000000000000600052602260045260246000fd5b7f4e487b7100000000000000000000000000000000000000000000000000000000600052604160045260246000fd5b6000601f19601f8301169050919050565b7f537472696e67733a20686578206c656e67746820696e73756666696369656e74600082015250565b7f576f726b206f7264657220616c726561647920617070726f7665640000000000600082015250565b7f576f726b206f72646572206e6f7420617070726f766564000000000000000000600082015250565b7f416363657373436f6e74726f6c3a206163636f756e7420000000000000000000600082015250565b7f206973206d697373696e6720726f6c6520000000000000000000000000000000600082015250565b7f416363657373436f6e74726f6c3a2063616e206f6e6c792072656e6f756e636560008201527f20726f6c657320666f722073656c660000000000000000000000000000000000602082015250565b611b4c8161183c565b8114611b5757600080fd5b50565b611b638161185a565b8114611b6e57600080fd5b50565b611b7a81611864565b8114611b8557600080fd5b50565b611b91816118b0565b8114611b9c57600080fd5b5056fea26469706673582212200c88c3c73b1210a663fa16bfca915ebda4f85293a81a623687eb976694ed31ac64736f6c63430008040033",
  "linkReferences": {},
  "deployedLinkReferences": {}
}