{
  "_format": "hh-sol-artifact-1",
  "contractName": "Signing",
  "sourceName": "contracts/SignDocument.sol",
  "abi": [
    {
      "anonymous": false,
      "inputs": [
        {
          "indexed": true,
          "internalType": "bytes32",
          "name": "documentHash",
          "type": "bytes32"
        },
        {
          "indexed": false,
          "internalType": "address",
          "name": "signer",
          "type": "address"
        }
      ],
      "name": "DocumentSigned",
      "type": "event"
    },
    {
      "inputs": [
        {
          "internalType": "bytes32",
          "name": "documentHash",
          "type": "bytes32"
        }
      ],
      "name": "getSigner",
      "outputs": [
        {
          "internalType": "address",
          "name": "",
          "type": "address"
        }
      ],
      "stateMutability": "view",
      "type": "function"
    },
    {
      "inputs": [
        {
          "internalType": "bytes32",
          "name": "documentHash",
          "type": "bytes32"
        }
      ],
      "name": "signDocument",
      "outputs": [],
      "stateMutability": "nonpayable",
      "type": "function"
    },
    {
      "inputs": [
        {
          "internalType": "bytes32",
          "name": "",
          "type": "bytes32"
        }
      ],
      "name": "signatures",
      "outputs": [
        {
          "internalType": "address",
          "name": "",
          "type": "address"
        }
      ],
      "stateMutability": "view",
      "type": "function"
    }
  ],
  "bytecode": "0x608060405234801561001057600080fd5b506103cc806100206000396000f3fe608060405234801561001057600080fd5b50600436106100415760003560e01c8063166cba38146100465780632422224e146100625780637a5ee0ca14610092575b600080fd5b610060600480360381019061005b9190610273565b6100c2565b005b61007c60048036038101906100779190610273565b6101ef565b60405161008991906102ce565b60405180910390f35b6100ac60048036038101906100a79190610273565b610222565b6040516100b991906102ce565b60405180910390f35b600073ffffffffffffffffffffffffffffffffffffffff1660008083815260200190815260200160002060009054906101000a900473ffffffffffffffffffffffffffffffffffffffff1673ffffffffffffffffffffffffffffffffffffffff1614610163576040517f08c379a000000000000000000000000000000000000000000000000000000000815260040161015a906102e9565b60405180910390fd5b3360008083815260200190815260200160002060006101000a81548173ffffffffffffffffffffffffffffffffffffffff021916908373ffffffffffffffffffffffffffffffffffffffff160217905550807ffc566ede6102b78343776b8847b3fac426f2ca3c96a1b9ead9faa5994b22b1ed336040516101e491906102ce565b60405180910390a250565b60006020528060005260406000206000915054906101000a900473ffffffffffffffffffffffffffffffffffffffff1681565b600080600083815260200190815260200160002060009054906101000a900473ffffffffffffffffffffffffffffffffffffffff169050919050565b60008135905061026d8161037f565b92915050565b60006020828403121561028557600080fd5b60006102938482850161025e565b91505092915050565b6102a58161031a565b82525050565b60006102b8601783610309565b91506102c382610356565b602082019050919050565b60006020820190506102e3600083018461029c565b92915050565b60006020820190508181036000830152610302816102ab565b9050919050565b600082825260208201905092915050565b600061032582610336565b9050919050565b6000819050919050565b600073ffffffffffffffffffffffffffffffffffffffff82169050919050565b7f446f63756d656e7420616c7265616479207369676e6564000000000000000000600082015250565b6103888161032c565b811461039357600080fd5b5056fea2646970667358221220c8d4b09c4faa86d9f5ee9cac5976e46f0d1dfa448eb03af7141a67f4e485fbe464736f6c63430008040033",
  "linkReferences": {},
  "deployedLinkReferences": {}
}