{
  "_format": "hh-sol-artifact-1",
  "contractName": "DocumentStorage",
  "sourceName": "contracts/AddDocumentAndVerify.sol",
  "abi": [
    {
      "anonymous": false,
      "inputs": [
        {
          "indexed": true,
          "internalType": "bytes32",
          "name": "hash",
          "type": "bytes32"
        }
      ],
      "name": "DocumentVerified",
      "type": "event"
    },
    {
      "anonymous": false,
      "inputs": [
        {
          "indexed": true,
          "internalType": "bytes32",
          "name": "hash",
          "type": "bytes32"
        },
        {
          "indexed": true,
          "internalType": "address",
          "name": "owner",
          "type": "address"
        }
      ],
      "name": "NewDocument",
      "type": "event"
    },
    {
      "inputs": [
        {
          "internalType": "bytes32",
          "name": "_hash",
          "type": "bytes32"
        }
      ],
      "name": "addDocument",
      "outputs": [],
      "stateMutability": "nonpayable",
      "type": "function"
    },
    {
      "inputs": [
        {
          "internalType": "bytes32",
          "name": "",
          "type": "bytes32"
        }
      ],
      "name": "documents",
      "outputs": [
        {
          "internalType": "bytes32",
          "name": "hash",
          "type": "bytes32"
        },
        {
          "internalType": "address",
          "name": "owner",
          "type": "address"
        },
        {
          "internalType": "bool",
          "name": "isVerified",
          "type": "bool"
        }
      ],
      "stateMutability": "view",
      "type": "function"
    },
    {
      "inputs": [
        {
          "internalType": "bytes32",
          "name": "_hash",
          "type": "bytes32"
        }
      ],
      "name": "getDocument",
      "outputs": [
        {
          "internalType": "bytes32",
          "name": "",
          "type": "bytes32"
        },
        {
          "internalType": "address",
          "name": "",
          "type": "address"
        },
        {
          "internalType": "bool",
          "name": "",
          "type": "bool"
        }
      ],
      "stateMutability": "view",
      "type": "function"
    },
    {
      "inputs": [
        {
          "internalType": "bytes32",
          "name": "_hash",
          "type": "bytes32"
        }
      ],
      "name": "verifyDocument",
      "outputs": [],
      "stateMutability": "nonpayable",
      "type": "function"
    }
  ],
  "bytecode": "0x608060405234801561001057600080fd5b506107f9806100206000396000f3fe608060405234801561001057600080fd5b506004361061004c5760003560e01c80632b2805db14610051578063582a286314610083578063b10d6b411461009f578063fe35089f146100d1575b600080fd5b61006b600480360381019061006691906104ca565b6100ed565b60405161007a939291906105ac565b60405180910390f35b61009d600480360381019061009891906104ca565b610144565b005b6100b960048036038101906100b491906104ca565b61030d565b6040516100c8939291906105ac565b60405180910390f35b6100eb60048036038101906100e691906104ca565b61038e565b005b60006020528060005260406000206000915090508060000154908060010160009054906101000a900473ffffffffffffffffffffffffffffffffffffffff16908060010160149054906101000a900460ff16905083565b6000801b600080838152602001908152602001600020600001541461019e576040517f08c379a000000000000000000000000000000000000000000000000000000000815260040161019590610623565b60405180910390fd5b3373ffffffffffffffffffffffffffffffffffffffff163373ffffffffffffffffffffffffffffffffffffffff161461020c576040517f08c379a000000000000000000000000000000000000000000000000000000000815260040161020390610603565b60405180910390fd5b60405180606001604052808281526020013373ffffffffffffffffffffffffffffffffffffffff168152602001600015158152506000808381526020019081526020016000206000820151816000015560208201518160010160006101000a81548173ffffffffffffffffffffffffffffffffffffffff021916908373ffffffffffffffffffffffffffffffffffffffff16021790555060408201518160010160146101000a81548160ff0219169083151502179055509050503373ffffffffffffffffffffffffffffffffffffffff16817faf2ee97d719d22b62f5467bc35205b62d81729ca5a8d3c335fb6001dbd889ec360405160405180910390a350565b60008060008060008581526020019081526020016000206000015460008086815260200190815260200160002060010160009054906101000a900473ffffffffffffffffffffffffffffffffffffffff1660008087815260200190815260200160002060010160149054906101000a900460ff169250925092509193909250565b6000801b6000808381526020019081526020016000206000015414156103e9576040517f08c379a00000000000000000000000000000000000000000000000000000000081526004016103e090610643565b60405180910390fd5b3373ffffffffffffffffffffffffffffffffffffffff163373ffffffffffffffffffffffffffffffffffffffff1614610457576040517f08c379a000000000000000000000000000000000000000000000000000000000815260040161044e906105e3565b60405180910390fd5b600160008083815260200190815260200160002060010160146101000a81548160ff021916908315150217905550807f9f33cbadb048dc548803bf5447a57ea249fa8fb306535b840082f86c25d3a5db60405160405180910390a250565b6000813590506104c4816107ac565b92915050565b6000602082840312156104dc57600080fd5b60006104ea848285016104b5565b91505092915050565b6104fc81610674565b82525050565b61050b81610686565b82525050565b61051a81610692565b82525050565b600061052d602483610663565b9150610538826106bc565b604082019050919050565b6000610550602183610663565b915061055b8261070b565b604082019050919050565b6000610573601783610663565b915061057e8261075a565b602082019050919050565b6000610596601783610663565b91506105a182610783565b602082019050919050565b60006060820190506105c16000830186610511565b6105ce60208301856104f3565b6105db6040830184610502565b949350505050565b600060208201905081810360008301526105fc81610520565b9050919050565b6000602082019050818103600083015261061c81610543565b9050919050565b6000602082019050818103600083015261063c81610566565b9050919050565b6000602082019050818103600083015261065c81610589565b9050919050565b600082825260208201905092915050565b600061067f8261069c565b9050919050565b60008115159050919050565b6000819050919050565b600073ffffffffffffffffffffffffffffffffffffffff82169050919050565b7f4f6e6c7920746865206f776e65722063616e20766572696679206120646f637560008201527f6d656e7400000000000000000000000000000000000000000000000000000000602082015250565b7f4f6e6c7920746865206f776e65722063616e20616464206120646f63756d656e60008201527f7400000000000000000000000000000000000000000000000000000000000000602082015250565b7f446f63756d656e7420616c726561647920657869737473000000000000000000600082015250565b7f446f63756d656e7420646f6573206e6f74206578697374000000000000000000600082015250565b6107b581610692565b81146107c057600080fd5b5056fea2646970667358221220c5e05eee1435e28059750ecaaf5c96c7157a205f544c4ac2a8a7b355437ec6a664736f6c63430008040033",
  "linkReferences": {},
  "deployedLinkReferences": {}
}