{
  "_format": "hh-sol-artifact-1",
  "contractName": "Auction",
  "sourceName": "contracts/Auction.sol",
  "abi": [
    {
      "inputs": [],
      "stateMutability": "nonpayable",
      "type": "constructor"
    },
    {
      "anonymous": false,
      "inputs": [
        {
          "indexed": false,
          "internalType": "uint256",
          "name": "id",
          "type": "uint256"
        },
        {
          "indexed": false,
          "internalType": "string",
          "name": "itemDetails",
          "type": "string"
        }
      ],
      "name": "AuctionCreated",
      "type": "event"
    },
    {
      "anonymous": false,
      "inputs": [
        {
          "indexed": false,
          "internalType": "uint256",
          "name": "auctionId",
          "type": "uint256"
        },
        {
          "indexed": false,
          "internalType": "address",
          "name": "winner",
          "type": "address"
        },
        {
          "indexed": false,
          "internalType": "uint256",
          "name": "winningBid",
          "type": "uint256"
        }
      ],
      "name": "AuctionFinalized",
      "type": "event"
    },
    {
      "anonymous": false,
      "inputs": [
        {
          "indexed": false,
          "internalType": "uint256",
          "name": "auctionId",
          "type": "uint256"
        },
        {
          "indexed": false,
          "internalType": "address",
          "name": "bidder",
          "type": "address"
        },
        {
          "indexed": false,
          "internalType": "uint256",
          "name": "bid",
          "type": "uint256"
        }
      ],
      "name": "NewBid",
      "type": "event"
    },
    {
      "anonymous": false,
      "inputs": [
        {
          "indexed": true,
          "internalType": "bytes32",
          "name": "role",
          "type": "bytes32"
        },
        {
          "indexed": true,
          "internalType": "bytes32",
          "name": "previousAdminRole",
          "type": "bytes32"
        },
        {
          "indexed": true,
          "internalType": "bytes32",
          "name": "newAdminRole",
          "type": "bytes32"
        }
      ],
      "name": "RoleAdminChanged",
      "type": "event"
    },
    {
      "anonymous": false,
      "inputs": [
        {
          "indexed": true,
          "internalType": "bytes32",
          "name": "role",
          "type": "bytes32"
        },
        {
          "indexed": true,
          "internalType": "address",
          "name": "account",
          "type": "address"
        },
        {
          "indexed": true,
          "internalType": "address",
          "name": "sender",
          "type": "address"
        }
      ],
      "name": "RoleGranted",
      "type": "event"
    },
    {
      "anonymous": false,
      "inputs": [
        {
          "indexed": true,
          "internalType": "bytes32",
          "name": "role",
          "type": "bytes32"
        },
        {
          "indexed": true,
          "internalType": "address",
          "name": "account",
          "type": "address"
        },
        {
          "indexed": true,
          "internalType": "address",
          "name": "sender",
          "type": "address"
        }
      ],
      "name": "RoleRevoked",
      "type": "event"
    },
    {
      "inputs": [],
      "name": "ADMIN_ROLE",
      "outputs": [
        {
          "internalType": "bytes32",
          "name": "",
          "type": "bytes32"
        }
      ],
      "stateMutability": "view",
      "type": "function"
    },
    {
      "inputs": [],
      "name": "DEFAULT_ADMIN_ROLE",
      "outputs": [
        {
          "internalType": "bytes32",
          "name": "",
          "type": "bytes32"
        }
      ],
      "stateMutability": "view",
      "type": "function"
    },
    {
      "inputs": [
        {
          "internalType": "uint256",
          "name": "",
          "type": "uint256"
        }
      ],
      "name": "auctions",
      "outputs": [
        {
          "internalType": "uint256",
          "name": "id",
          "type": "uint256"
        },
        {
          "internalType": "string",
          "name": "itemDetails",
          "type": "string"
        },
        {
          "internalType": "address",
          "name": "highestBidder",
          "type": "address"
        },
        {
          "internalType": "uint256",
          "name": "highestBid",
          "type": "uint256"
        },
        {
          "internalType": "bool",
          "name": "finalized",
          "type": "bool"
        }
      ],
      "stateMutability": "view",
      "type": "function"
    },
    {
      "inputs": [
        {
          "internalType": "string",
          "name": "itemDetails",
          "type": "string"
        }
      ],
      "name": "createAuction",
      "outputs": [],
      "stateMutability": "nonpayable",
      "type": "function"
    },
    {
      "inputs": [
        {
          "internalType": "uint256",
          "name": "auctionId",
          "type": "uint256"
        }
      ],
      "name": "finalizeAuction",
      "outputs": [],
      "stateMutability": "nonpayable",
      "type": "function"
    },
    {
      "inputs": [
        {
          "internalType": "bytes32",
          "name": "role",
          "type": "bytes32"
        }
      ],
      "name": "getRoleAdmin",
      "outputs": [
        {
          "internalType": "bytes32",
          "name": "",
          "type": "bytes32"
        }
      ],
      "stateMutability": "view",
      "type": "function"
    },
    {
      "inputs": [
        {
          "internalType": "bytes32",
          "name": "role",
          "type": "bytes32"
        },
        {
          "internalType": "address",
          "name": "account",
          "type": "address"
        }
      ],
      "name": "grantRole",
      "outputs": [],
      "stateMutability": "nonpayable",
      "type": "function"
    },
    {
      "inputs": [
        {
          "internalType": "bytes32",
          "name": "role",
          "type": "bytes32"
        },
        {
          "internalType": "address",
          "name": "account",
          "type": "address"
        }
      ],
      "name": "hasRole",
      "outputs": [
        {
          "internalType": "bool",
          "name": "",
          "type": "bool"
        }
      ],
      "stateMutability": "view",
      "type": "function"
    },
    {
      "inputs": [],
      "name": "nextAuctionId",
      "outputs": [
        {
          "internalType": "uint256",
          "name": "",
          "type": "uint256"
        }
      ],
      "stateMutability": "view",
      "type": "function"
    },
    {
      "inputs": [
        {
          "internalType": "uint256",
          "name": "auctionId",
          "type": "uint256"
        }
      ],
      "name": "placeBid",
      "outputs": [],
      "stateMutability": "payable",
      "type": "function"
    },
    {
      "inputs": [
        {
          "internalType": "bytes32",
          "name": "role",
          "type": "bytes32"
        },
        {
          "internalType": "address",
          "name": "account",
          "type": "address"
        }
      ],
      "name": "renounceRole",
      "outputs": [],
      "stateMutability": "nonpayable",
      "type": "function"
    },
    {
      "inputs": [
        {
          "internalType": "bytes32",
          "name": "role",
          "type": "bytes32"
        },
        {
          "internalType": "address",
          "name": "account",
          "type": "address"
        }
      ],
      "name": "revokeRole",
      "outputs": [],
      "stateMutability": "nonpayable",
      "type": "function"
    },
    {
      "inputs": [
        {
          "internalType": "bytes4",
          "name": "interfaceId",
          "type": "bytes4"
        }
      ],
      "name": "supportsInterface",
      "outputs": [
        {
          "internalType": "bool",
          "name": "",
          "type": "bool"
        }
      ],
      "stateMutability": "view",
      "type": "function"
    }
  ],
  "bytecode": "0x60806040523480156200001157600080fd5b50620000447fa49807205ce4d355092ef5a8a18f56e8913cf4a201fbe287825b095693c21775336200004a60201b60201c565b620001c3565b6200005c82826200006060201b60201c565b5050565b6200007282826200015160201b60201c565b6200014d57600160008084815260200190815260200160002060000160008373ffffffffffffffffffffffffffffffffffffffff1673ffffffffffffffffffffffffffffffffffffffff16815260200190815260200160002060006101000a81548160ff021916908315150217905550620000f2620001bb60201b60201c565b73ffffffffffffffffffffffffffffffffffffffff168173ffffffffffffffffffffffffffffffffffffffff16837f2f8788117e7eff1d82e926ec794901d17c78024a50270940304540a733656f0d60405160405180910390a45b5050565b600080600084815260200190815260200160002060000160008373ffffffffffffffffffffffffffffffffffffffff1673ffffffffffffffffffffffffffffffffffffffff16815260200190815260200160002060009054906101000a900460ff16905092915050565b600033905090565b611cdb80620001d36000396000f3fe6080604052600436106100c25760003560e01c80638e27cb251161007f578063a217fddf11610059578063a217fddf14610281578063d547741f146102ac578063e8083863146102d5578063fc528482146102fe576100c2565b80638e27cb25146101ff57806391d14854146102285780639979ef4514610265576100c2565b806301ffc9a7146100c7578063248a9ca3146101045780632f2ff15d1461014157806336568abe1461016a578063571a26a01461019357806375b238fc146101d4575b600080fd5b3480156100d357600080fd5b506100ee60048036038101906100e991906110e2565b610329565b6040516100fb919061112a565b60405180910390f35b34801561011057600080fd5b5061012b6004803603810190610126919061117b565b6103a3565b60405161013891906111b7565b60405180910390f35b34801561014d57600080fd5b5061016860048036038101906101639190611230565b6103c2565b005b34801561017657600080fd5b50610191600480360381019061018c9190611230565b6103e3565b005b34801561019f57600080fd5b506101ba60048036038101906101b591906112a6565b610466565b6040516101cb959493929190611381565b60405180910390f35b3480156101e057600080fd5b506101e9610551565b6040516101f691906111b7565b60405180910390f35b34801561020b57600080fd5b5061022660048036038101906102219190611440565b610575565b005b34801561023457600080fd5b5061024f600480360381019061024a9190611230565b61072a565b60405161025c919061112a565b60405180910390f35b61027f600480360381019061027a91906112a6565b610794565b005b34801561028d57600080fd5b50610296610996565b6040516102a391906111b7565b60405180910390f35b3480156102b857600080fd5b506102d360048036038101906102ce9190611230565b61099d565b005b3480156102e157600080fd5b506102fc60048036038101906102f791906112a6565b6109be565b005b34801561030a57600080fd5b50610313610b45565b604051610320919061148d565b60405180910390f35b60007f7965db0b000000000000000000000000000000000000000000000000000000007bffffffffffffffffffffffffffffffffffffffffffffffffffffffff1916827bffffffffffffffffffffffffffffffffffffffffffffffffffffffff1916148061039c575061039b82610b4b565b5b9050919050565b6000806000838152602001908152602001600020600101549050919050565b6103cb826103a3565b6103d481610bb5565b6103de8383610bc9565b505050565b6103eb610ca9565b73ffffffffffffffffffffffffffffffffffffffff168173ffffffffffffffffffffffffffffffffffffffff1614610458576040517f08c379a000000000000000000000000000000000000000000000000000000000815260040161044f9061151a565b60405180910390fd5b6104628282610cb1565b5050565b600260205280600052604060002060009150905080600001549080600101805461048f90611569565b80601f01602080910402602001604051908101604052809291908181526020018280546104bb90611569565b80156105085780601f106104dd57610100808354040283529160200191610508565b820191906000526020600020905b8154815290600101906020018083116104eb57829003601f168201915b5050505050908060020160009054906101000a900473ffffffffffffffffffffffffffffffffffffffff16908060030154908060040160009054906101000a900460ff16905085565b7fa49807205ce4d355092ef5a8a18f56e8913cf4a201fbe287825b095693c2177581565b7fa49807205ce4d355092ef5a8a18f56e8913cf4a201fbe287825b095693c2177561059f81610bb5565b6040518060a00160405280600154815260200184848080601f016020809104026020016040519081016040528093929190818152602001838380828437600081840152601f19601f820116905080830192505050505050508152602001600073ffffffffffffffffffffffffffffffffffffffff168152602001600081526020016000151581525060026000600154815260200190815260200160002060008201518160000155602082015181600101908161065b9190611775565b5060408201518160020160006101000a81548173ffffffffffffffffffffffffffffffffffffffff021916908373ffffffffffffffffffffffffffffffffffffffff1602179055506060820151816003015560808201518160040160006101000a81548160ff0219169083151502179055509050507f84dbbe572fcd8281f88fbf55359ad5039443609c2304288d3c8816dd3bb9fc21600154848460405161070593929190611883565b60405180910390a160016000815480929190610720906118e4565b9190505550505050565b600080600084815260200190815260200160002060000160008373ffffffffffffffffffffffffffffffffffffffff1673ffffffffffffffffffffffffffffffffffffffff16815260200190815260200160002060009054906101000a900460ff16905092915050565b6000600260008381526020019081526020016000209050806003015434116107f1576040517f08c379a00000000000000000000000000000000000000000000000000000000081526004016107e890611978565b60405180910390fd5b8060040160009054906101000a900460ff1615610843576040517f08c379a000000000000000000000000000000000000000000000000000000000815260040161083a906119e4565b60405180910390fd5b600073ffffffffffffffffffffffffffffffffffffffff168160020160009054906101000a900473ffffffffffffffffffffffffffffffffffffffff1673ffffffffffffffffffffffffffffffffffffffff161461090b578060020160009054906101000a900473ffffffffffffffffffffffffffffffffffffffff1673ffffffffffffffffffffffffffffffffffffffff166108fc82600301549081150290604051600060405180830381858888f19350505050158015610909573d6000803e3d6000fd5b505b338160020160006101000a81548173ffffffffffffffffffffffffffffffffffffffff021916908373ffffffffffffffffffffffffffffffffffffffff1602179055503481600301819055507f558a0d5d5468d74b0db24c74eb348b42271c2ebb4c9e953ced38aaed95fa436182333460405161098a93929190611a04565b60405180910390a15050565b6000801b81565b6109a6826103a3565b6109af81610bb5565b6109b98383610cb1565b505050565b7fa49807205ce4d355092ef5a8a18f56e8913cf4a201fbe287825b095693c217756109e881610bb5565b60006002600084815260200190815260200160002090508060040160009054906101000a900460ff1615610a51576040517f08c379a0000000000000000000000000000000000000000000000000000000008152600401610a48906119e4565b60405180910390fd5b60018160040160006101000a81548160ff0219169083151502179055508060020160009054906101000a900473ffffffffffffffffffffffffffffffffffffffff1673ffffffffffffffffffffffffffffffffffffffff166108fc82600301549081150290604051600060405180830381858888f19350505050158015610adc573d6000803e3d6000fd5b507f4d9113a1377d665eaa1f9168a9c9080f2e488cb820b10149de3d6d2e0f2780c7838260020160009054906101000a900473ffffffffffffffffffffffffffffffffffffffff168360030154604051610b3893929190611a04565b60405180910390a1505050565b60015481565b60007f01ffc9a7000000000000000000000000000000000000000000000000000000007bffffffffffffffffffffffffffffffffffffffffffffffffffffffff1916827bffffffffffffffffffffffffffffffffffffffffffffffffffffffff1916149050919050565b610bc681610bc1610ca9565b610d92565b50565b610bd3828261072a565b610ca557600160008084815260200190815260200160002060000160008373ffffffffffffffffffffffffffffffffffffffff1673ffffffffffffffffffffffffffffffffffffffff16815260200190815260200160002060006101000a81548160ff021916908315150217905550610c4a610ca9565b73ffffffffffffffffffffffffffffffffffffffff168173ffffffffffffffffffffffffffffffffffffffff16837f2f8788117e7eff1d82e926ec794901d17c78024a50270940304540a733656f0d60405160405180910390a45b5050565b600033905090565b610cbb828261072a565b15610d8e57600080600084815260200190815260200160002060000160008373ffffffffffffffffffffffffffffffffffffffff1673ffffffffffffffffffffffffffffffffffffffff16815260200190815260200160002060006101000a81548160ff021916908315150217905550610d33610ca9565b73ffffffffffffffffffffffffffffffffffffffff168173ffffffffffffffffffffffffffffffffffffffff16837ff6391f5c32d9c69d2a47ea670b442974b53935d1edc7fd64eb21e047a839171b60405160405180910390a45b5050565b610d9c828261072a565b610e1357610da981610e17565b610db78360001c6020610e44565b604051602001610dc8929190611b0f565b6040516020818303038152906040526040517f08c379a0000000000000000000000000000000000000000000000000000000008152600401610e0a9190611b49565b60405180910390fd5b5050565b6060610e3d8273ffffffffffffffffffffffffffffffffffffffff16601460ff16610e44565b9050919050565b606060006002836002610e579190611b6b565b610e619190611bad565b67ffffffffffffffff811115610e7a57610e7961159a565b5b6040519080825280601f01601f191660200182016040528015610eac5781602001600182028036833780820191505090505b5090507f300000000000000000000000000000000000000000000000000000000000000081600081518110610ee457610ee3611be1565b5b60200101907effffffffffffffffffffffffffffffffffffffffffffffffffffffffffffff1916908160001a9053507f780000000000000000000000000000000000000000000000000000000000000081600181518110610f4857610f47611be1565b5b60200101907effffffffffffffffffffffffffffffffffffffffffffffffffffffffffffff1916908160001a90535060006001846002610f889190611b6b565b610f929190611bad565b90505b6001811115611032577f3031323334353637383961626364656600000000000000000000000000000000600f861660108110610fd457610fd3611be1565b5b1a60f81b828281518110610feb57610fea611be1565b5b60200101907effffffffffffffffffffffffffffffffffffffffffffffffffffffffffffff1916908160001a905350600485901c94508061102b90611c10565b9050610f95565b5060008414611076576040517f08c379a000000000000000000000000000000000000000000000000000000000815260040161106d90611c85565b60405180910390fd5b8091505092915050565b600080fd5b600080fd5b60007fffffffff0000000000000000000000000000000000000000000000000000000082169050919050565b6110bf8161108a565b81146110ca57600080fd5b50565b6000813590506110dc816110b6565b92915050565b6000602082840312156110f8576110f7611080565b5b6000611106848285016110cd565b91505092915050565b60008115159050919050565b6111248161110f565b82525050565b600060208201905061113f600083018461111b565b92915050565b6000819050919050565b61115881611145565b811461116357600080fd5b50565b6000813590506111758161114f565b92915050565b60006020828403121561119157611190611080565b5b600061119f84828501611166565b91505092915050565b6111b181611145565b82525050565b60006020820190506111cc60008301846111a8565b92915050565b600073ffffffffffffffffffffffffffffffffffffffff82169050919050565b60006111fd826111d2565b9050919050565b61120d816111f2565b811461121857600080fd5b50565b60008135905061122a81611204565b92915050565b6000806040838503121561124757611246611080565b5b600061125585828601611166565b92505060206112668582860161121b565b9150509250929050565b6000819050919050565b61128381611270565b811461128e57600080fd5b50565b6000813590506112a08161127a565b92915050565b6000602082840312156112bc576112bb611080565b5b60006112ca84828501611291565b91505092915050565b6112dc81611270565b82525050565b600081519050919050565b600082825260208201905092915050565b60005b8381101561131c578082015181840152602081019050611301565b60008484015250505050565b6000601f19601f8301169050919050565b6000611344826112e2565b61134e81856112ed565b935061135e8185602086016112fe565b61136781611328565b840191505092915050565b61137b816111f2565b82525050565b600060a08201905061139660008301886112d3565b81810360208301526113a88187611339565b90506113b76040830186611372565b6113c460608301856112d3565b6113d1608083018461111b565b9695505050505050565b600080fd5b600080fd5b600080fd5b60008083601f840112611400576113ff6113db565b5b8235905067ffffffffffffffff81111561141d5761141c6113e0565b5b602083019150836001820283011115611439576114386113e5565b5b9250929050565b6000806020838503121561145757611456611080565b5b600083013567ffffffffffffffff81111561147557611474611085565b5b611481858286016113ea565b92509250509250929050565b60006020820190506114a260008301846112d3565b92915050565b7f416363657373436f6e74726f6c3a2063616e206f6e6c792072656e6f756e636560008201527f20726f6c657320666f722073656c660000000000000000000000000000000000602082015250565b6000611504602f836112ed565b915061150f826114a8565b604082019050919050565b60006020820190508181036000830152611533816114f7565b9050919050565b7f4e487b7100000000000000000000000000000000000000000000000000000000600052602260045260246000fd5b6000600282049050600182168061158157607f821691505b6020821081036115945761159361153a565b5b50919050565b7f4e487b7100000000000000000000000000000000000000000000000000000000600052604160045260246000fd5b60008190508160005260206000209050919050565b60006020601f8301049050919050565b600082821b905092915050565b60006008830261162b7fffffffffffffffffffffffffffffffffffffffffffffffffffffffffffffffff826115ee565b61163586836115ee565b95508019841693508086168417925050509392505050565b6000819050919050565b600061167261166d61166884611270565b61164d565b611270565b9050919050565b6000819050919050565b61168c83611657565b6116a061169882611679565b8484546115fb565b825550505050565b600090565b6116b56116a8565b6116c0818484611683565b505050565b5b818110156116e4576116d96000826116ad565b6001810190506116c6565b5050565b601f821115611729576116fa816115c9565b611703846115de565b81016020851015611712578190505b61172661171e856115de565b8301826116c5565b50505b505050565b600082821c905092915050565b600061174c6000198460080261172e565b1980831691505092915050565b6000611765838361173b565b9150826002028217905092915050565b61177e826112e2565b67ffffffffffffffff8111156117975761179661159a565b5b6117a18254611569565b6117ac8282856116e8565b600060209050601f8311600181146117df57600084156117cd578287015190505b6117d78582611759565b86555061183f565b601f1984166117ed866115c9565b60005b82811015611815578489015182556001820191506020850194506020810190506117f0565b86831015611832578489015161182e601f89168261173b565b8355505b6001600288020188555050505b505050505050565b82818337600083830152505050565b600061186283856112ed565b935061186f838584611847565b61187883611328565b840190509392505050565b600060408201905061189860008301866112d3565b81810360208301526118ab818486611856565b9050949350505050565b7f4e487b7100000000000000000000000000000000000000000000000000000000600052601160045260246000fd5b60006118ef82611270565b91507fffffffffffffffffffffffffffffffffffffffffffffffffffffffffffffffff8203611921576119206118b5565b5b600182019050919050565b7f42696420746f6f206c6f77000000000000000000000000000000000000000000600082015250565b6000611962600b836112ed565b915061196d8261192c565b602082019050919050565b6000602082019050818103600083015261199181611955565b9050919050565b7f41756374696f6e20616c72656164792066696e616c697a656400000000000000600082015250565b60006119ce6019836112ed565b91506119d982611998565b602082019050919050565b600060208201905081810360008301526119fd816119c1565b9050919050565b6000606082019050611a1960008301866112d3565b611a266020830185611372565b611a3360408301846112d3565b949350505050565b600081905092915050565b7f416363657373436f6e74726f6c3a206163636f756e7420000000000000000000600082015250565b6000611a7c601783611a3b565b9150611a8782611a46565b601782019050919050565b6000611a9d826112e2565b611aa78185611a3b565b9350611ab78185602086016112fe565b80840191505092915050565b7f206973206d697373696e6720726f6c6520000000000000000000000000000000600082015250565b6000611af9601183611a3b565b9150611b0482611ac3565b601182019050919050565b6000611b1a82611a6f565b9150611b268285611a92565b9150611b3182611aec565b9150611b3d8284611a92565b91508190509392505050565b60006020820190508181036000830152611b638184611339565b905092915050565b6000611b7682611270565b9150611b8183611270565b9250828202611b8f81611270565b91508282048414831517611ba657611ba56118b5565b5b5092915050565b6000611bb882611270565b9150611bc383611270565b9250828201905080821115611bdb57611bda6118b5565b5b92915050565b7f4e487b7100000000000000000000000000000000000000000000000000000000600052603260045260246000fd5b6000611c1b82611270565b915060008203611c2e57611c2d6118b5565b5b600182039050919050565b7f537472696e67733a20686578206c656e67746820696e73756666696369656e74600082015250565b6000611c6f6020836112ed565b9150611c7a82611c39565b602082019050919050565b60006020820190508181036000830152611c9e81611c62565b905091905056fea26469706673582212208abf2947358cae04becd2b30ebe0b3ccc803a07c18808084fd502e018d830dad64736f6c63430008120033",
  "linkReferences": {},
  "deployedLinkReferences": {}
}