{
  "_format": "hh-sol-artifact-1",
  "contractName": "WorkOrderManagement",
  "sourceName": "contracts/WorkOrderManagement.sol",
  "abi": [
    {
      "inputs": [],
      "stateMutability": "nonpayable",
      "type": "constructor"
    },
    {
      "anonymous": false,
      "inputs": [
        {
          "indexed": false,
          "internalType": "uint256",
          "name": "id",
          "type": "uint256"
        },
        {
          "indexed": false,
          "internalType": "string",
          "name": "certificateURL",
          "type": "string"
        }
      ],
      "name": "CertificateIssued",
      "type": "event"
    },
    {
      "anonymous": false,
      "inputs": [
        {
          "indexed": true,
          "internalType": "bytes32",
          "name": "role",
          "type": "bytes32"
        },
        {
          "indexed": true,
          "internalType": "bytes32",
          "name": "previousAdminRole",
          "type": "bytes32"
        },
        {
          "indexed": true,
          "internalType": "bytes32",
          "name": "newAdminRole",
          "type": "bytes32"
        }
      ],
      "name": "RoleAdminChanged",
      "type": "event"
    },
    {
      "anonymous": false,
      "inputs": [
        {
          "indexed": true,
          "internalType": "bytes32",
          "name": "role",
          "type": "bytes32"
        },
        {
          "indexed": true,
          "internalType": "address",
          "name": "account",
          "type": "address"
        },
        {
          "indexed": true,
          "internalType": "address",
          "name": "sender",
          "type": "address"
        }
      ],
      "name": "RoleGranted",
      "type": "event"
    },
    {
      "anonymous": false,
      "inputs": [
        {
          "indexed": true,
          "internalType": "bytes32",
          "name": "role",
          "type": "bytes32"
        },
        {
          "indexed": true,
          "internalType": "address",
          "name": "account",
          "type": "address"
        },
        {
          "indexed": true,
          "internalType": "address",
          "name": "sender",
          "type": "address"
        }
      ],
      "name": "RoleRevoked",
      "type": "event"
    },
    {
      "anonymous": false,
      "inputs": [
        {
          "indexed": false,
          "internalType": "uint256",
          "name": "id",
          "type": "uint256"
        },
        {
          "indexed": false,
          "internalType": "address",
          "name": "approver",
          "type": "address"
        }
      ],
      "name": "WorkOrderApproved",
      "type": "event"
    },
    {
      "anonymous": false,
      "inputs": [
        {
          "indexed": false,
          "internalType": "uint256",
          "name": "id",
          "type": "uint256"
        },
        {
          "indexed": false,
          "internalType": "string",
          "name": "description",
          "type": "string"
        },
        {
          "indexed": false,
          "internalType": "address",
          "name": "issuer",
          "type": "address"
        }
      ],
      "name": "WorkOrderCreated",
      "type": "event"
    },
    {
      "inputs": [],
      "name": "ADMIN_ROLE",
      "outputs": [
        {
          "internalType": "bytes32",
          "name": "",
          "type": "bytes32"
        }
      ],
      "stateMutability": "view",
      "type": "function"
    },
    {
      "inputs": [],
      "name": "DEFAULT_ADMIN_ROLE",
      "outputs": [
        {
          "internalType": "bytes32",
          "name": "",
          "type": "bytes32"
        }
      ],
      "stateMutability": "view",
      "type": "function"
    },
    {
      "inputs": [],
      "name": "DEPARTMENT_ROLE",
      "outputs": [
        {
          "internalType": "bytes32",
          "name": "",
          "type": "bytes32"
        }
      ],
      "stateMutability": "view",
      "type": "function"
    },
    {
      "inputs": [
        {
          "internalType": "uint256",
          "name": "_id",
          "type": "uint256"
        }
      ],
      "name": "approveWorkOrder",
      "outputs": [],
      "stateMutability": "nonpayable",
      "type": "function"
    },
    {
      "inputs": [
        {
          "internalType": "string",
          "name": "_description",
          "type": "string"
        }
      ],
      "name": "createWorkOrder",
      "outputs": [],
      "stateMutability": "nonpayable",
      "type": "function"
    },
    {
      "inputs": [],
      "name": "getAdminRole",
      "outputs": [
        {
          "internalType": "bytes32",
          "name": "",
          "type": "bytes32"
        }
      ],
      "stateMutability": "pure",
      "type": "function"
    },
    {
      "inputs": [],
      "name": "getDepartmentRole",
      "outputs": [
        {
          "internalType": "bytes32",
          "name": "",
          "type": "bytes32"
        }
      ],
      "stateMutability": "pure",
      "type": "function"
    },
    {
      "inputs": [
        {
          "internalType": "bytes32",
          "name": "role",
          "type": "bytes32"
        }
      ],
      "name": "getRoleAdmin",
      "outputs": [
        {
          "internalType": "bytes32",
          "name": "",
          "type": "bytes32"
        }
      ],
      "stateMutability": "view",
      "type": "function"
    },
    {
      "inputs": [
        {
          "internalType": "address",
          "name": "account",
          "type": "address"
        }
      ],
      "name": "grantDepartmentRole",
      "outputs": [],
      "stateMutability": "nonpayable",
      "type": "function"
    },
    {
      "inputs": [
        {
          "internalType": "bytes32",
          "name": "role",
          "type": "bytes32"
        },
        {
          "internalType": "address",
          "name": "account",
          "type": "address"
        }
      ],
      "name": "grantRole",
      "outputs": [],
      "stateMutability": "nonpayable",
      "type": "function"
    },
    {
      "inputs": [
        {
          "internalType": "bytes32",
          "name": "role",
          "type": "bytes32"
        },
        {
          "internalType": "address",
          "name": "account",
          "type": "address"
        }
      ],
      "name": "hasRole",
      "outputs": [
        {
          "internalType": "bool",
          "name": "",
          "type": "bool"
        }
      ],
      "stateMutability": "view",
      "type": "function"
    },
    {
      "inputs": [
        {
          "internalType": "uint256",
          "name": "_id",
          "type": "uint256"
        },
        {
          "internalType": "string",
          "name": "_certificateURL",
          "type": "string"
        }
      ],
      "name": "issueCertificate",
      "outputs": [],
      "stateMutability": "nonpayable",
      "type": "function"
    },
    {
      "inputs": [
        {
          "internalType": "bytes32",
          "name": "role",
          "type": "bytes32"
        },
        {
          "internalType": "address",
          "name": "account",
          "type": "address"
        }
      ],
      "name": "renounceRole",
      "outputs": [],
      "stateMutability": "nonpayable",
      "type": "function"
    },
    {
      "inputs": [
        {
          "internalType": "bytes32",
          "name": "role",
          "type": "bytes32"
        },
        {
          "internalType": "address",
          "name": "account",
          "type": "address"
        }
      ],
      "name": "revokeRole",
      "outputs": [],
      "stateMutability": "nonpayable",
      "type": "function"
    },
    {
      "inputs": [
        {
          "internalType": "bytes4",
          "name": "interfaceId",
          "type": "bytes4"
        }
      ],
      "name": "supportsInterface",
      "outputs": [
        {
          "internalType": "bool",
          "name": "",
          "type": "bool"
        }
      ],
      "stateMutability": "view",
      "type": "function"
    },
    {
      "inputs": [
        {
          "internalType": "uint256",
          "name": "",
          "type": "uint256"
        }
      ],
      "name": "workOrders",
      "outputs": [
        {
          "internalType": "uint256",
          "name": "id",
          "type": "uint256"
        },
        {
          "internalType": "string",
          "name": "description",
          "type": "string"
        },
        {
          "internalType": "address",
          "name": "issuer",
          "type": "address"
        },
        {
          "internalType": "bool",
          "name": "approved",
          "type": "bool"
        },
        {
          "internalType": "string",
          "name": "certificateURL",
          "type": "string"
        }
      ],
      "stateMutability": "view",
      "type": "function"
    }
  ],
  "bytecode": "0x60806040523480156200001157600080fd5b50620000276000801b336200009160201b60201c565b620000597fe7837d04f36ce0b2f3cc662bf1b2b632a7fbd12ae95199e8bd3dcfbcc440b66b336200009160201b60201c565b6200008b7fa49807205ce4d355092ef5a8a18f56e8913cf4a201fbe287825b095693c21775336200009160201b60201c565b6200020a565b620000a38282620000a760201b60201c565b5050565b620000b982826200019860201b60201c565b6200019457600160008084815260200190815260200160002060000160008373ffffffffffffffffffffffffffffffffffffffff1673ffffffffffffffffffffffffffffffffffffffff16815260200190815260200160002060006101000a81548160ff021916908315150217905550620001396200020260201b60201c565b73ffffffffffffffffffffffffffffffffffffffff168173ffffffffffffffffffffffffffffffffffffffff16837f2f8788117e7eff1d82e926ec794901d17c78024a50270940304540a733656f0d60405160405180910390a45b5050565b600080600084815260200190815260200160002060000160008373ffffffffffffffffffffffffffffffffffffffff1673ffffffffffffffffffffffffffffffffffffffff16815260200190815260200160002060009054906101000a900460ff16905092915050565b600033905090565b611d07806200021a6000396000f3fe608060405234801561001057600080fd5b50600436106101005760003560e01c8063879b268e11610097578063b3ecf23611610066578063b3ecf23614610299578063c686c98d146102b7578063d24a4bc6146102eb578063d547741f1461030757610100565b8063879b268e1461021157806391d148541461022d578063996dc0221461025d578063a217fddf1461027b57610100565b8063248a9ca3116100d3578063248a9ca31461018b5780632f2ff15d146101bb57806336568abe146101d757806375b238fc146101f357610100565b806301ffc9a7146101055780630c816de4146101355780630ecd85071461015157806312fb59f21461016f575b600080fd5b61011f600480360381019061011a9190611052565b610323565b60405161012c919061109a565b60405180910390f35b61014f600480360381019061014a9190611231565b61039d565b005b610159610480565b60405161016691906112a6565b60405180910390f35b6101896004803603810190610184919061131f565b6104a8565b005b6101a560048036038101906101a09190611378565b6104e3565b6040516101b291906112a6565b60405180910390f35b6101d560048036038101906101d091906113a5565b610502565b005b6101f160048036038101906101ec91906113a5565b610523565b005b6101fb6105a6565b60405161020891906112a6565b60405180910390f35b61022b600480360381019061022691906113e5565b6105ca565b005b610247600480360381019061024291906113a5565b6106b8565b604051610254919061109a565b60405180910390f35b610265610722565b60405161027291906112a6565b60405180910390f35b610283610746565b60405161029091906112a6565b60405180910390f35b6102a161074d565b6040516102ae91906112a6565b60405180910390f35b6102d160048036038101906102cc91906113e5565b610775565b6040516102e29594939291906114af565b60405180910390f35b61030560048036038101906103009190611510565b6108e8565b005b610321600480360381019061031c91906113a5565b610a6c565b005b60007f7965db0b000000000000000000000000000000000000000000000000000000007bffffffffffffffffffffffffffffffffffffffffffffffffffffffff1916827bffffffffffffffffffffffffffffffffffffffffffffffffffffffff19161480610396575061039582610a8d565b5b9050919050565b7fa49807205ce4d355092ef5a8a18f56e8913cf4a201fbe287825b095693c217756103c781610af7565b60006002600085815260200190815260200160002090508060020160149054906101000a900460ff1661042f576040517f08c379a0000000000000000000000000000000000000000000000000000000008152600401610426906115a5565b60405180910390fd5b8281600301908161044091906117d1565b507f82e047af96f6b7e5a52ea238aee0ca4188211301535ddf1fe126e140df6421b484846040516104729291906118a3565b60405180910390a150505050565b60007fe7837d04f36ce0b2f3cc662bf1b2b632a7fbd12ae95199e8bd3dcfbcc440b66b905090565b6000801b6104b581610af7565b6104df7fe7837d04f36ce0b2f3cc662bf1b2b632a7fbd12ae95199e8bd3dcfbcc440b66b83610502565b5050565b6000806000838152602001908152602001600020600101549050919050565b61050b826104e3565b61051481610af7565b61051e8383610b0b565b505050565b61052b610beb565b73ffffffffffffffffffffffffffffffffffffffff168173ffffffffffffffffffffffffffffffffffffffff1614610598576040517f08c379a000000000000000000000000000000000000000000000000000000000815260040161058f90611945565b60405180910390fd5b6105a28282610bf3565b5050565b7fa49807205ce4d355092ef5a8a18f56e8913cf4a201fbe287825b095693c2177581565b7fa49807205ce4d355092ef5a8a18f56e8913cf4a201fbe287825b095693c217756105f481610af7565b60006002600084815260200190815260200160002090508060020160149054906101000a900460ff161561065d576040517f08c379a0000000000000000000000000000000000000000000000000000000008152600401610654906119b1565b60405180910390fd5b60018160020160146101000a81548160ff0219169083151502179055507fae429ad811c4c0844c3e8a6584619bd1daf0c6e00de8ffe5b6d2414d1f93e85083336040516106ab9291906119d1565b60405180910390a1505050565b600080600084815260200190815260200160002060000160008373ffffffffffffffffffffffffffffffffffffffff1673ffffffffffffffffffffffffffffffffffffffff16815260200190815260200160002060009054906101000a900460ff16905092915050565b7fe7837d04f36ce0b2f3cc662bf1b2b632a7fbd12ae95199e8bd3dcfbcc440b66b81565b6000801b81565b60007fa49807205ce4d355092ef5a8a18f56e8913cf4a201fbe287825b095693c21775905090565b600260205280600052604060002060009150905080600001549080600101805461079e906115f4565b80601f01602080910402602001604051908101604052809291908181526020018280546107ca906115f4565b80156108175780601f106107ec57610100808354040283529160200191610817565b820191906000526020600020905b8154815290600101906020018083116107fa57829003601f168201915b5050505050908060020160009054906101000a900473ffffffffffffffffffffffffffffffffffffffff16908060020160149054906101000a900460ff1690806003018054610865906115f4565b80601f0160208091040260200160405190810160405280929190818152602001828054610891906115f4565b80156108de5780601f106108b3576101008083540402835291602001916108de565b820191906000526020600020905b8154815290600101906020018083116108c157829003601f168201915b5050505050905085565b7fe7837d04f36ce0b2f3cc662bf1b2b632a7fbd12ae95199e8bd3dcfbcc440b66b61091281610af7565b600061091e6001610cd4565b905061092a6001610ce2565b6040518060a001604052808281526020018481526020013373ffffffffffffffffffffffffffffffffffffffff16815260200160001515815260200160405180602001604052806000815250815250600260008381526020019081526020016000206000820151816000015560208201518160010190816109ab91906117d1565b5060408201518160020160006101000a81548173ffffffffffffffffffffffffffffffffffffffff021916908373ffffffffffffffffffffffffffffffffffffffff16021790555060608201518160020160146101000a81548160ff0219169083151502179055506080820151816003019081610a2891906117d1565b509050507fac25f2b2efefec9ad778452a05dbdafeef6c29131865faa62a2831067c6058f7818433604051610a5f939291906119fa565b60405180910390a1505050565b610a75826104e3565b610a7e81610af7565b610a888383610bf3565b505050565b60007f01ffc9a7000000000000000000000000000000000000000000000000000000007bffffffffffffffffffffffffffffffffffffffffffffffffffffffff1916827bffffffffffffffffffffffffffffffffffffffffffffffffffffffff1916149050919050565b610b0881610b03610beb565b610cf8565b50565b610b1582826106b8565b610be757600160008084815260200190815260200160002060000160008373ffffffffffffffffffffffffffffffffffffffff1673ffffffffffffffffffffffffffffffffffffffff16815260200190815260200160002060006101000a81548160ff021916908315150217905550610b8c610beb565b73ffffffffffffffffffffffffffffffffffffffff168173ffffffffffffffffffffffffffffffffffffffff16837f2f8788117e7eff1d82e926ec794901d17c78024a50270940304540a733656f0d60405160405180910390a45b5050565b600033905090565b610bfd82826106b8565b15610cd057600080600084815260200190815260200160002060000160008373ffffffffffffffffffffffffffffffffffffffff1673ffffffffffffffffffffffffffffffffffffffff16815260200190815260200160002060006101000a81548160ff021916908315150217905550610c75610beb565b73ffffffffffffffffffffffffffffffffffffffff168173ffffffffffffffffffffffffffffffffffffffff16837ff6391f5c32d9c69d2a47ea670b442974b53935d1edc7fd64eb21e047a839171b60405160405180910390a45b5050565b600081600001549050919050565b6001816000016000828254019250508190555050565b610d0282826106b8565b610d7957610d0f81610d7d565b610d1d8360001c6020610daa565b604051602001610d2e929190611b0c565b6040516020818303038152906040526040517f08c379a0000000000000000000000000000000000000000000000000000000008152600401610d709190611b46565b60405180910390fd5b5050565b6060610da38273ffffffffffffffffffffffffffffffffffffffff16601460ff16610daa565b9050919050565b606060006002836002610dbd9190611b97565b610dc79190611bd9565b67ffffffffffffffff811115610de057610ddf611106565b5b6040519080825280601f01601f191660200182016040528015610e125781602001600182028036833780820191505090505b5090507f300000000000000000000000000000000000000000000000000000000000000081600081518110610e4a57610e49611c0d565b5b60200101907effffffffffffffffffffffffffffffffffffffffffffffffffffffffffffff1916908160001a9053507f780000000000000000000000000000000000000000000000000000000000000081600181518110610eae57610ead611c0d565b5b60200101907effffffffffffffffffffffffffffffffffffffffffffffffffffffffffffff1916908160001a90535060006001846002610eee9190611b97565b610ef89190611bd9565b90505b6001811115610f98577f3031323334353637383961626364656600000000000000000000000000000000600f861660108110610f3a57610f39611c0d565b5b1a60f81b828281518110610f5157610f50611c0d565b5b60200101907effffffffffffffffffffffffffffffffffffffffffffffffffffffffffffff1916908160001a905350600485901c945080610f9190611c3c565b9050610efb565b5060008414610fdc576040517f08c379a0000000000000000000000000000000000000000000000000000000008152600401610fd390611cb1565b60405180910390fd5b8091505092915050565b6000604051905090565b600080fd5b600080fd5b60007fffffffff0000000000000000000000000000000000000000000000000000000082169050919050565b61102f81610ffa565b811461103a57600080fd5b50565b60008135905061104c81611026565b92915050565b60006020828403121561106857611067610ff0565b5b60006110768482850161103d565b91505092915050565b60008115159050919050565b6110948161107f565b82525050565b60006020820190506110af600083018461108b565b92915050565b6000819050919050565b6110c8816110b5565b81146110d357600080fd5b50565b6000813590506110e5816110bf565b92915050565b600080fd5b600080fd5b6000601f19601f8301169050919050565b7f4e487b7100000000000000000000000000000000000000000000000000000000600052604160045260246000fd5b61113e826110f5565b810181811067ffffffffffffffff8211171561115d5761115c611106565b5b80604052505050565b6000611170610fe6565b905061117c8282611135565b919050565b600067ffffffffffffffff82111561119c5761119b611106565b5b6111a5826110f5565b9050602081019050919050565b82818337600083830152505050565b60006111d46111cf84611181565b611166565b9050828152602081018484840111156111f0576111ef6110f0565b5b6111fb8482856111b2565b509392505050565b600082601f830112611218576112176110eb565b5b81356112288482602086016111c1565b91505092915050565b6000806040838503121561124857611247610ff0565b5b6000611256858286016110d6565b925050602083013567ffffffffffffffff81111561127757611276610ff5565b5b61128385828601611203565b9150509250929050565b6000819050919050565b6112a08161128d565b82525050565b60006020820190506112bb6000830184611297565b92915050565b600073ffffffffffffffffffffffffffffffffffffffff82169050919050565b60006112ec826112c1565b9050919050565b6112fc816112e1565b811461130757600080fd5b50565b600081359050611319816112f3565b92915050565b60006020828403121561133557611334610ff0565b5b60006113438482850161130a565b91505092915050565b6113558161128d565b811461136057600080fd5b50565b6000813590506113728161134c565b92915050565b60006020828403121561138e5761138d610ff0565b5b600061139c84828501611363565b91505092915050565b600080604083850312156113bc576113bb610ff0565b5b60006113ca85828601611363565b92505060206113db8582860161130a565b9150509250929050565b6000602082840312156113fb576113fa610ff0565b5b6000611409848285016110d6565b91505092915050565b61141b816110b5565b82525050565b600081519050919050565b600082825260208201905092915050565b60005b8381101561145b578082015181840152602081019050611440565b60008484015250505050565b600061147282611421565b61147c818561142c565b935061148c81856020860161143d565b611495816110f5565b840191505092915050565b6114a9816112e1565b82525050565b600060a0820190506114c46000830188611412565b81810360208301526114d68187611467565b90506114e560408301866114a0565b6114f2606083018561108b565b81810360808301526115048184611467565b90509695505050505050565b60006020828403121561152657611525610ff0565b5b600082013567ffffffffffffffff81111561154457611543610ff5565b5b61155084828501611203565b91505092915050565b7f576f726b206f72646572206e6f7420617070726f766564000000000000000000600082015250565b600061158f60178361142c565b915061159a82611559565b602082019050919050565b600060208201905081810360008301526115be81611582565b9050919050565b7f4e487b7100000000000000000000000000000000000000000000000000000000600052602260045260246000fd5b6000600282049050600182168061160c57607f821691505b60208210810361161f5761161e6115c5565b5b50919050565b60008190508160005260206000209050919050565b60006020601f8301049050919050565b600082821b905092915050565b6000600883026116877fffffffffffffffffffffffffffffffffffffffffffffffffffffffffffffffff8261164a565b611691868361164a565b95508019841693508086168417925050509392505050565b6000819050919050565b60006116ce6116c96116c4846110b5565b6116a9565b6110b5565b9050919050565b6000819050919050565b6116e8836116b3565b6116fc6116f4826116d5565b848454611657565b825550505050565b600090565b611711611704565b61171c8184846116df565b505050565b5b8181101561174057611735600082611709565b600181019050611722565b5050565b601f8211156117855761175681611625565b61175f8461163a565b8101602085101561176e578190505b61178261177a8561163a565b830182611721565b50505b505050565b600082821c905092915050565b60006117a86000198460080261178a565b1980831691505092915050565b60006117c18383611797565b9150826002028217905092915050565b6117da82611421565b67ffffffffffffffff8111156117f3576117f2611106565b5b6117fd82546115f4565b611808828285611744565b600060209050601f83116001811461183b5760008415611829578287015190505b61183385826117b5565b86555061189b565b601f19841661184986611625565b60005b828110156118715784890151825560018201915060208501945060208101905061184c565b8683101561188e578489015161188a601f891682611797565b8355505b6001600288020188555050505b505050505050565b60006040820190506118b86000830185611412565b81810360208301526118ca8184611467565b90509392505050565b7f416363657373436f6e74726f6c3a2063616e206f6e6c792072656e6f756e636560008201527f20726f6c657320666f722073656c660000000000000000000000000000000000602082015250565b600061192f602f8361142c565b915061193a826118d3565b604082019050919050565b6000602082019050818103600083015261195e81611922565b9050919050565b7f576f726b206f7264657220616c726561647920617070726f7665640000000000600082015250565b600061199b601b8361142c565b91506119a682611965565b602082019050919050565b600060208201905081810360008301526119ca8161198e565b9050919050565b60006040820190506119e66000830185611412565b6119f360208301846114a0565b9392505050565b6000606082019050611a0f6000830186611412565b8181036020830152611a218185611467565b9050611a3060408301846114a0565b949350505050565b600081905092915050565b7f416363657373436f6e74726f6c3a206163636f756e7420000000000000000000600082015250565b6000611a79601783611a38565b9150611a8482611a43565b601782019050919050565b6000611a9a82611421565b611aa48185611a38565b9350611ab481856020860161143d565b80840191505092915050565b7f206973206d697373696e6720726f6c6520000000000000000000000000000000600082015250565b6000611af6601183611a38565b9150611b0182611ac0565b601182019050919050565b6000611b1782611a6c565b9150611b238285611a8f565b9150611b2e82611ae9565b9150611b3a8284611a8f565b91508190509392505050565b60006020820190508181036000830152611b608184611467565b905092915050565b7f4e487b7100000000000000000000000000000000000000000000000000000000600052601160045260246000fd5b6000611ba2826110b5565b9150611bad836110b5565b9250828202611bbb816110b5565b91508282048414831517611bd257611bd1611b68565b5b5092915050565b6000611be4826110b5565b9150611bef836110b5565b9250828201905080821115611c0757611c06611b68565b5b92915050565b7f4e487b7100000000000000000000000000000000000000000000000000000000600052603260045260246000fd5b6000611c47826110b5565b915060008203611c5a57611c59611b68565b5b600182039050919050565b7f537472696e67733a20686578206c656e67746820696e73756666696369656e74600082015250565b6000611c9b60208361142c565b9150611ca682611c65565b602082019050919050565b60006020820190508181036000830152611cca81611c8e565b905091905056fea2646970667358221220399731c368791797eee0f9825f7824a8f71246984c5400bc7e8051b30d9053fa64736f6c63430008120033",
  "linkReferences": {},
  "deployedLinkReferences": {}
}