{
  "_format": "hh-sol-artifact-1",
  "contractName": "WorkOrderManagement",
  "sourceName": "contracts/WorkOrderManagement.sol",
  "abi": [
    {
      "inputs": [],
      "stateMutability": "nonpayable",
      "type": "constructor"
    },
    {
      "anonymous": false,
      "inputs": [
        {
          "indexed": false,
          "internalType": "uint256",
          "name": "id",
          "type": "uint256"
        },
        {
          "indexed": false,
          "internalType": "string",
          "name": "certificateURL",
          "type": "string"
        }
      ],
      "name": "CertificateIssued",
      "type": "event"
    },
    {
      "anonymous": false,
      "inputs": [
        {
          "indexed": true,
          "internalType": "bytes32",
          "name": "role",
          "type": "bytes32"
        },
        {
          "indexed": true,
          "internalType": "bytes32",
          "name": "previousAdminRole",
          "type": "bytes32"
        },
        {
          "indexed": true,
          "internalType": "bytes32",
          "name": "newAdminRole",
          "type": "bytes32"
        }
      ],
      "name": "RoleAdminChanged",
      "type": "event"
    },
    {
      "anonymous": false,
      "inputs": [
        {
          "indexed": true,
          "internalType": "bytes32",
          "name": "role",
          "type": "bytes32"
        },
        {
          "indexed": true,
          "internalType": "address",
          "name": "account",
          "type": "address"
        },
        {
          "indexed": true,
          "internalType": "address",
          "name": "sender",
          "type": "address"
        }
      ],
      "name": "RoleGranted",
      "type": "event"
    },
    {
      "anonymous": false,
      "inputs": [
        {
          "indexed": true,
          "internalType": "bytes32",
          "name": "role",
          "type": "bytes32"
        },
        {
          "indexed": true,
          "internalType": "address",
          "name": "account",
          "type": "address"
        },
        {
          "indexed": true,
          "internalType": "address",
          "name": "sender",
          "type": "address"
        }
      ],
      "name": "RoleRevoked",
      "type": "event"
    },
    {
      "anonymous": false,
      "inputs": [
        {
          "indexed": false,
          "internalType": "uint256",
          "name": "id",
          "type": "uint256"
        },
        {
          "indexed": false,
          "internalType": "address",
          "name": "approver",
          "type": "address"
        }
      ],
      "name": "WorkOrderApproved",
      "type": "event"
    },
    {
      "anonymous": false,
      "inputs": [
        {
          "indexed": false,
          "internalType": "uint256",
          "name": "id",
          "type": "uint256"
        },
        {
          "indexed": false,
          "internalType": "string",
          "name": "description",
          "type": "string"
        },
        {
          "indexed": false,
          "internalType": "address",
          "name": "issuer",
          "type": "address"
        }
      ],
      "name": "WorkOrderCreated",
      "type": "event"
    },
    {
      "inputs": [],
      "name": "ADMIN_ROLE",
      "outputs": [
        {
          "internalType": "bytes32",
          "name": "",
          "type": "bytes32"
        }
      ],
      "stateMutability": "view",
      "type": "function"
    },
    {
      "inputs": [],
      "name": "DEFAULT_ADMIN_ROLE",
      "outputs": [
        {
          "internalType": "bytes32",
          "name": "",
          "type": "bytes32"
        }
      ],
      "stateMutability": "view",
      "type": "function"
    },
    {
      "inputs": [],
      "name": "DEPARTMENT_ROLE",
      "outputs": [
        {
          "internalType": "bytes32",
          "name": "",
          "type": "bytes32"
        }
      ],
      "stateMutability": "view",
      "type": "function"
    },
    {
      "inputs": [
        {
          "internalType": "uint256",
          "name": "_id",
          "type": "uint256"
        }
      ],
      "name": "approveWorkOrder",
      "outputs": [],
      "stateMutability": "nonpayable",
      "type": "function"
    },
    {
      "inputs": [
        {
          "internalType": "string",
          "name": "_description",
          "type": "string"
        }
      ],
      "name": "createWorkOrder",
      "outputs": [],
      "stateMutability": "nonpayable",
      "type": "function"
    },
    {
      "inputs": [],
      "name": "getAdminRole",
      "outputs": [
        {
          "internalType": "bytes32",
          "name": "",
          "type": "bytes32"
        }
      ],
      "stateMutability": "pure",
      "type": "function"
    },
    {
      "inputs": [],
      "name": "getDepartmentRole",
      "outputs": [
        {
          "internalType": "bytes32",
          "name": "",
          "type": "bytes32"
        }
      ],
      "stateMutability": "pure",
      "type": "function"
    },
    {
      "inputs": [
        {
          "internalType": "bytes32",
          "name": "role",
          "type": "bytes32"
        }
      ],
      "name": "getRoleAdmin",
      "outputs": [
        {
          "internalType": "bytes32",
          "name": "",
          "type": "bytes32"
        }
      ],
      "stateMutability": "view",
      "type": "function"
    },
    {
      "inputs": [
        {
          "internalType": "bytes32",
          "name": "role",
          "type": "bytes32"
        },
        {
          "internalType": "address",
          "name": "account",
          "type": "address"
        }
      ],
      "name": "grantRole",
      "outputs": [],
      "stateMutability": "nonpayable",
      "type": "function"
    },
    {
      "inputs": [
        {
          "internalType": "bytes32",
          "name": "role",
          "type": "bytes32"
        },
        {
          "internalType": "address",
          "name": "account",
          "type": "address"
        }
      ],
      "name": "hasRole",
      "outputs": [
        {
          "internalType": "bool",
          "name": "",
          "type": "bool"
        }
      ],
      "stateMutability": "view",
      "type": "function"
    },
    {
      "inputs": [
        {
          "internalType": "uint256",
          "name": "_id",
          "type": "uint256"
        },
        {
          "internalType": "string",
          "name": "_certificateURL",
          "type": "string"
        }
      ],
      "name": "issueCertificate",
      "outputs": [],
      "stateMutability": "nonpayable",
      "type": "function"
    },
    {
      "inputs": [
        {
          "internalType": "bytes32",
          "name": "role",
          "type": "bytes32"
        },
        {
          "internalType": "address",
          "name": "account",
          "type": "address"
        }
      ],
      "name": "renounceRole",
      "outputs": [],
      "stateMutability": "nonpayable",
      "type": "function"
    },
    {
      "inputs": [
        {
          "internalType": "bytes32",
          "name": "role",
          "type": "bytes32"
        },
        {
          "internalType": "address",
          "name": "account",
          "type": "address"
        }
      ],
      "name": "revokeRole",
      "outputs": [],
      "stateMutability": "nonpayable",
      "type": "function"
    },
    {
      "inputs": [
        {
          "internalType": "bytes4",
          "name": "interfaceId",
          "type": "bytes4"
        }
      ],
      "name": "supportsInterface",
      "outputs": [
        {
          "internalType": "bool",
          "name": "",
          "type": "bool"
        }
      ],
      "stateMutability": "view",
      "type": "function"
    },
    {
      "inputs": [
        {
          "internalType": "uint256",
          "name": "",
          "type": "uint256"
        }
      ],
      "name": "workOrders",
      "outputs": [
        {
          "internalType": "uint256",
          "name": "id",
          "type": "uint256"
        },
        {
          "internalType": "string",
          "name": "description",
          "type": "string"
        },
        {
          "internalType": "address",
          "name": "issuer",
          "type": "address"
        },
        {
          "internalType": "bool",
          "name": "approved",
          "type": "bool"
        },
        {
          "internalType": "string",
          "name": "certificateURL",
          "type": "string"
        }
      ],
      "stateMutability": "view",
      "type": "function"
    }
  ],
  "bytecode": "0x60806040523480156200001157600080fd5b50620000276000801b336200005f60201b60201c565b620000597fe7837d04f36ce0b2f3cc662bf1b2b632a7fbd12ae95199e8bd3dcfbcc440b66b336200005f60201b60201c565b620001d8565b6200007182826200007560201b60201c565b5050565b6200008782826200016660201b60201c565b6200016257600160008084815260200190815260200160002060000160008373ffffffffffffffffffffffffffffffffffffffff1673ffffffffffffffffffffffffffffffffffffffff16815260200190815260200160002060006101000a81548160ff02191690831515021790555062000107620001d060201b60201c565b73ffffffffffffffffffffffffffffffffffffffff168173ffffffffffffffffffffffffffffffffffffffff16837f2f8788117e7eff1d82e926ec794901d17c78024a50270940304540a733656f0d60405160405180910390a45b5050565b600080600084815260200190815260200160002060000160008373ffffffffffffffffffffffffffffffffffffffff1673ffffffffffffffffffffffffffffffffffffffff16815260200190815260200160002060009054906101000a900460ff16905092915050565b600033905090565b611c7880620001e86000396000f3fe608060405234801561001057600080fd5b50600436106100f55760003560e01c8063879b268e11610097578063b3ecf23611610066578063b3ecf23614610272578063c686c98d14610290578063d24a4bc6146102c4578063d547741f146102e0576100f5565b8063879b268e146101ea57806391d1485414610206578063996dc02214610236578063a217fddf14610254576100f5565b8063248a9ca3116100d3578063248a9ca3146101645780632f2ff15d1461019457806336568abe146101b057806375b238fc146101cc576100f5565b806301ffc9a7146100fa5780630c816de41461012a5780630ecd850714610146575b600080fd5b610114600480360381019061010f9190610ff0565b6102fc565b6040516101219190611038565b60405180910390f35b610144600480360381019061013f91906111cf565b610376565b005b61014e610459565b60405161015b9190611244565b60405180910390f35b61017e6004803603810190610179919061128b565b610481565b60405161018b9190611244565b60405180910390f35b6101ae60048036038101906101a99190611316565b6104a0565b005b6101ca60048036038101906101c59190611316565b6104c1565b005b6101d4610544565b6040516101e19190611244565b60405180910390f35b61020460048036038101906101ff9190611356565b610568565b005b610220600480360381019061021b9190611316565b610656565b60405161022d9190611038565b60405180910390f35b61023e6106c0565b60405161024b9190611244565b60405180910390f35b61025c6106e4565b6040516102699190611244565b60405180910390f35b61027a6106eb565b6040516102879190611244565b60405180910390f35b6102aa60048036038101906102a59190611356565b610713565b6040516102bb959493929190611420565b60405180910390f35b6102de60048036038101906102d99190611481565b610886565b005b6102fa60048036038101906102f59190611316565b610a0a565b005b60007f7965db0b000000000000000000000000000000000000000000000000000000007bffffffffffffffffffffffffffffffffffffffffffffffffffffffff1916827bffffffffffffffffffffffffffffffffffffffffffffffffffffffff1916148061036f575061036e82610a2b565b5b9050919050565b7fa49807205ce4d355092ef5a8a18f56e8913cf4a201fbe287825b095693c217756103a081610a95565b60006002600085815260200190815260200160002090508060020160149054906101000a900460ff16610408576040517f08c379a00000000000000000000000000000000000000000000000000000000081526004016103ff90611516565b60405180910390fd5b828160030190816104199190611742565b507f82e047af96f6b7e5a52ea238aee0ca4188211301535ddf1fe126e140df6421b4848460405161044b929190611814565b60405180910390a150505050565b60007fe7837d04f36ce0b2f3cc662bf1b2b632a7fbd12ae95199e8bd3dcfbcc440b66b905090565b6000806000838152602001908152602001600020600101549050919050565b6104a982610481565b6104b281610a95565b6104bc8383610aa9565b505050565b6104c9610b89565b73ffffffffffffffffffffffffffffffffffffffff168173ffffffffffffffffffffffffffffffffffffffff1614610536576040517f08c379a000000000000000000000000000000000000000000000000000000000815260040161052d906118b6565b60405180910390fd5b6105408282610b91565b5050565b7fa49807205ce4d355092ef5a8a18f56e8913cf4a201fbe287825b095693c2177581565b7fa49807205ce4d355092ef5a8a18f56e8913cf4a201fbe287825b095693c2177561059281610a95565b60006002600084815260200190815260200160002090508060020160149054906101000a900460ff16156105fb576040517f08c379a00000000000000000000000000000000000000000000000000000000081526004016105f290611922565b60405180910390fd5b60018160020160146101000a81548160ff0219169083151502179055507fae429ad811c4c0844c3e8a6584619bd1daf0c6e00de8ffe5b6d2414d1f93e8508333604051610649929190611942565b60405180910390a1505050565b600080600084815260200190815260200160002060000160008373ffffffffffffffffffffffffffffffffffffffff1673ffffffffffffffffffffffffffffffffffffffff16815260200190815260200160002060009054906101000a900460ff16905092915050565b7fe7837d04f36ce0b2f3cc662bf1b2b632a7fbd12ae95199e8bd3dcfbcc440b66b81565b6000801b81565b60007fa49807205ce4d355092ef5a8a18f56e8913cf4a201fbe287825b095693c21775905090565b600260205280600052604060002060009150905080600001549080600101805461073c90611565565b80601f016020809104026020016040519081016040528092919081815260200182805461076890611565565b80156107b55780601f1061078a576101008083540402835291602001916107b5565b820191906000526020600020905b81548152906001019060200180831161079857829003601f168201915b5050505050908060020160009054906101000a900473ffffffffffffffffffffffffffffffffffffffff16908060020160149054906101000a900460ff169080600301805461080390611565565b80601f016020809104026020016040519081016040528092919081815260200182805461082f90611565565b801561087c5780601f106108515761010080835404028352916020019161087c565b820191906000526020600020905b81548152906001019060200180831161085f57829003601f168201915b5050505050905085565b7fe7837d04f36ce0b2f3cc662bf1b2b632a7fbd12ae95199e8bd3dcfbcc440b66b6108b081610a95565b60006108bc6001610c72565b90506108c86001610c80565b6040518060a001604052808281526020018481526020013373ffffffffffffffffffffffffffffffffffffffff16815260200160001515815260200160405180602001604052806000815250815250600260008381526020019081526020016000206000820151816000015560208201518160010190816109499190611742565b5060408201518160020160006101000a81548173ffffffffffffffffffffffffffffffffffffffff021916908373ffffffffffffffffffffffffffffffffffffffff16021790555060608201518160020160146101000a81548160ff02191690831515021790555060808201518160030190816109c69190611742565b509050507fac25f2b2efefec9ad778452a05dbdafeef6c29131865faa62a2831067c6058f78184336040516109fd9392919061196b565b60405180910390a1505050565b610a1382610481565b610a1c81610a95565b610a268383610b91565b505050565b60007f01ffc9a7000000000000000000000000000000000000000000000000000000007bffffffffffffffffffffffffffffffffffffffffffffffffffffffff1916827bffffffffffffffffffffffffffffffffffffffffffffffffffffffff1916149050919050565b610aa681610aa1610b89565b610c96565b50565b610ab38282610656565b610b8557600160008084815260200190815260200160002060000160008373ffffffffffffffffffffffffffffffffffffffff1673ffffffffffffffffffffffffffffffffffffffff16815260200190815260200160002060006101000a81548160ff021916908315150217905550610b2a610b89565b73ffffffffffffffffffffffffffffffffffffffff168173ffffffffffffffffffffffffffffffffffffffff16837f2f8788117e7eff1d82e926ec794901d17c78024a50270940304540a733656f0d60405160405180910390a45b5050565b600033905090565b610b9b8282610656565b15610c6e57600080600084815260200190815260200160002060000160008373ffffffffffffffffffffffffffffffffffffffff1673ffffffffffffffffffffffffffffffffffffffff16815260200190815260200160002060006101000a81548160ff021916908315150217905550610c13610b89565b73ffffffffffffffffffffffffffffffffffffffff168173ffffffffffffffffffffffffffffffffffffffff16837ff6391f5c32d9c69d2a47ea670b442974b53935d1edc7fd64eb21e047a839171b60405160405180910390a45b5050565b600081600001549050919050565b6001816000016000828254019250508190555050565b610ca08282610656565b610d1757610cad81610d1b565b610cbb8360001c6020610d48565b604051602001610ccc929190611a7d565b6040516020818303038152906040526040517f08c379a0000000000000000000000000000000000000000000000000000000008152600401610d0e9190611ab7565b60405180910390fd5b5050565b6060610d418273ffffffffffffffffffffffffffffffffffffffff16601460ff16610d48565b9050919050565b606060006002836002610d5b9190611b08565b610d659190611b4a565b67ffffffffffffffff811115610d7e57610d7d6110a4565b5b6040519080825280601f01601f191660200182016040528015610db05781602001600182028036833780820191505090505b5090507f300000000000000000000000000000000000000000000000000000000000000081600081518110610de857610de7611b7e565b5b60200101907effffffffffffffffffffffffffffffffffffffffffffffffffffffffffffff1916908160001a9053507f780000000000000000000000000000000000000000000000000000000000000081600181518110610e4c57610e4b611b7e565b5b60200101907effffffffffffffffffffffffffffffffffffffffffffffffffffffffffffff1916908160001a90535060006001846002610e8c9190611b08565b610e969190611b4a565b90505b6001811115610f36577f3031323334353637383961626364656600000000000000000000000000000000600f861660108110610ed857610ed7611b7e565b5b1a60f81b828281518110610eef57610eee611b7e565b5b60200101907effffffffffffffffffffffffffffffffffffffffffffffffffffffffffffff1916908160001a905350600485901c945080610f2f90611bad565b9050610e99565b5060008414610f7a576040517f08c379a0000000000000000000000000000000000000000000000000000000008152600401610f7190611c22565b60405180910390fd5b8091505092915050565b6000604051905090565b600080fd5b600080fd5b60007fffffffff0000000000000000000000000000000000000000000000000000000082169050919050565b610fcd81610f98565b8114610fd857600080fd5b50565b600081359050610fea81610fc4565b92915050565b60006020828403121561100657611005610f8e565b5b600061101484828501610fdb565b91505092915050565b60008115159050919050565b6110328161101d565b82525050565b600060208201905061104d6000830184611029565b92915050565b6000819050919050565b61106681611053565b811461107157600080fd5b50565b6000813590506110838161105d565b92915050565b600080fd5b600080fd5b6000601f19601f8301169050919050565b7f4e487b7100000000000000000000000000000000000000000000000000000000600052604160045260246000fd5b6110dc82611093565b810181811067ffffffffffffffff821117156110fb576110fa6110a4565b5b80604052505050565b600061110e610f84565b905061111a82826110d3565b919050565b600067ffffffffffffffff82111561113a576111396110a4565b5b61114382611093565b9050602081019050919050565b82818337600083830152505050565b600061117261116d8461111f565b611104565b90508281526020810184848401111561118e5761118d61108e565b5b611199848285611150565b509392505050565b600082601f8301126111b6576111b5611089565b5b81356111c684826020860161115f565b91505092915050565b600080604083850312156111e6576111e5610f8e565b5b60006111f485828601611074565b925050602083013567ffffffffffffffff81111561121557611214610f93565b5b611221858286016111a1565b9150509250929050565b6000819050919050565b61123e8161122b565b82525050565b60006020820190506112596000830184611235565b92915050565b6112688161122b565b811461127357600080fd5b50565b6000813590506112858161125f565b92915050565b6000602082840312156112a1576112a0610f8e565b5b60006112af84828501611276565b91505092915050565b600073ffffffffffffffffffffffffffffffffffffffff82169050919050565b60006112e3826112b8565b9050919050565b6112f3816112d8565b81146112fe57600080fd5b50565b600081359050611310816112ea565b92915050565b6000806040838503121561132d5761132c610f8e565b5b600061133b85828601611276565b925050602061134c85828601611301565b9150509250929050565b60006020828403121561136c5761136b610f8e565b5b600061137a84828501611074565b91505092915050565b61138c81611053565b82525050565b600081519050919050565b600082825260208201905092915050565b60005b838110156113cc5780820151818401526020810190506113b1565b60008484015250505050565b60006113e382611392565b6113ed818561139d565b93506113fd8185602086016113ae565b61140681611093565b840191505092915050565b61141a816112d8565b82525050565b600060a0820190506114356000830188611383565b818103602083015261144781876113d8565b90506114566040830186611411565b6114636060830185611029565b818103608083015261147581846113d8565b90509695505050505050565b60006020828403121561149757611496610f8e565b5b600082013567ffffffffffffffff8111156114b5576114b4610f93565b5b6114c1848285016111a1565b91505092915050565b7f576f726b206f72646572206e6f7420617070726f766564000000000000000000600082015250565b600061150060178361139d565b915061150b826114ca565b602082019050919050565b6000602082019050818103600083015261152f816114f3565b9050919050565b7f4e487b7100000000000000000000000000000000000000000000000000000000600052602260045260246000fd5b6000600282049050600182168061157d57607f821691505b6020821081036115905761158f611536565b5b50919050565b60008190508160005260206000209050919050565b60006020601f8301049050919050565b600082821b905092915050565b6000600883026115f87fffffffffffffffffffffffffffffffffffffffffffffffffffffffffffffffff826115bb565b61160286836115bb565b95508019841693508086168417925050509392505050565b6000819050919050565b600061163f61163a61163584611053565b61161a565b611053565b9050919050565b6000819050919050565b61165983611624565b61166d61166582611646565b8484546115c8565b825550505050565b600090565b611682611675565b61168d818484611650565b505050565b5b818110156116b1576116a660008261167a565b600181019050611693565b5050565b601f8211156116f6576116c781611596565b6116d0846115ab565b810160208510156116df578190505b6116f36116eb856115ab565b830182611692565b50505b505050565b600082821c905092915050565b6000611719600019846008026116fb565b1980831691505092915050565b60006117328383611708565b9150826002028217905092915050565b61174b82611392565b67ffffffffffffffff811115611764576117636110a4565b5b61176e8254611565565b6117798282856116b5565b600060209050601f8311600181146117ac576000841561179a578287015190505b6117a48582611726565b86555061180c565b601f1984166117ba86611596565b60005b828110156117e2578489015182556001820191506020850194506020810190506117bd565b868310156117ff57848901516117fb601f891682611708565b8355505b6001600288020188555050505b505050505050565b60006040820190506118296000830185611383565b818103602083015261183b81846113d8565b90509392505050565b7f416363657373436f6e74726f6c3a2063616e206f6e6c792072656e6f756e636560008201527f20726f6c657320666f722073656c660000000000000000000000000000000000602082015250565b60006118a0602f8361139d565b91506118ab82611844565b604082019050919050565b600060208201905081810360008301526118cf81611893565b9050919050565b7f576f726b206f7264657220616c726561647920617070726f7665640000000000600082015250565b600061190c601b8361139d565b9150611917826118d6565b602082019050919050565b6000602082019050818103600083015261193b816118ff565b9050919050565b60006040820190506119576000830185611383565b6119646020830184611411565b9392505050565b60006060820190506119806000830186611383565b818103602083015261199281856113d8565b90506119a16040830184611411565b949350505050565b600081905092915050565b7f416363657373436f6e74726f6c3a206163636f756e7420000000000000000000600082015250565b60006119ea6017836119a9565b91506119f5826119b4565b601782019050919050565b6000611a0b82611392565b611a1581856119a9565b9350611a258185602086016113ae565b80840191505092915050565b7f206973206d697373696e6720726f6c6520000000000000000000000000000000600082015250565b6000611a676011836119a9565b9150611a7282611a31565b601182019050919050565b6000611a88826119dd565b9150611a948285611a00565b9150611a9f82611a5a565b9150611aab8284611a00565b91508190509392505050565b60006020820190508181036000830152611ad181846113d8565b905092915050565b7f4e487b7100000000000000000000000000000000000000000000000000000000600052601160045260246000fd5b6000611b1382611053565b9150611b1e83611053565b9250828202611b2c81611053565b91508282048414831517611b4357611b42611ad9565b5b5092915050565b6000611b5582611053565b9150611b6083611053565b9250828201905080821115611b7857611b77611ad9565b5b92915050565b7f4e487b7100000000000000000000000000000000000000000000000000000000600052603260045260246000fd5b6000611bb882611053565b915060008203611bcb57611bca611ad9565b5b600182039050919050565b7f537472696e67733a20686578206c656e67746820696e73756666696369656e74600082015250565b6000611c0c60208361139d565b9150611c1782611bd6565b602082019050919050565b60006020820190508181036000830152611c3b81611bff565b905091905056fea26469706673582212209b3d927b5eaee628b3c937a5ec66d43932312d66cf712704877dac28e248faa764736f6c63430008120033",
  "linkReferences": {},
  "deployedLinkReferences": {}
}