{
  "_format": "hh-sol-artifact-1",
  "contractName": "PDFSigningProtocol",
  "sourceName": "contracts/PDFSignProtocol.sol",
  "abi": [
    {
      "anonymous": false,
      "inputs": [
        {
          "indexed": true,
          "internalType": "address",
          "name": "signer",
          "type": "address"
        },
        {
          "indexed": true,
          "internalType": "bytes32",
          "name": "documentHash",
          "type": "bytes32"
        },
        {
          "indexed": false,
          "internalType": "uint256",
          "name": "timestamp",
          "type": "uint256"
        }
      ],
      "name": "DocumentSigned",
      "type": "event"
    },
    {
      "inputs": [
        {
          "internalType": "bytes32",
          "name": "_documentHash",
          "type": "bytes32"
        }
      ],
      "name": "getSignature",
      "outputs": [
        {
          "internalType": "address",
          "name": "",
          "type": "address"
        },
        {
          "internalType": "uint256",
          "name": "",
          "type": "uint256"
        }
      ],
      "stateMutability": "view",
      "type": "function"
    },
    {
      "inputs": [
        {
          "internalType": "bytes32",
          "name": "_documentHash",
          "type": "bytes32"
        }
      ],
      "name": "signDocument",
      "outputs": [],
      "stateMutability": "nonpayable",
      "type": "function"
    },
    {
      "inputs": [
        {
          "internalType": "bytes32",
          "name": "",
          "type": "bytes32"
        }
      ],
      "name": "signatures",
      "outputs": [
        {
          "internalType": "address",
          "name": "signer",
          "type": "address"
        },
        {
          "internalType": "bytes32",
          "name": "documentHash",
          "type": "bytes32"
        },
        {
          "internalType": "uint256",
          "name": "timestamp",
          "type": "uint256"
        }
      ],
      "stateMutability": "view",
      "type": "function"
    }
  ],
  "bytecode": "0x608060405234801561001057600080fd5b5061061e806100206000396000f3fe608060405234801561001057600080fd5b50600436106100415760003560e01c8063166cba38146100465780632422224e14610062578063c4b14e0b14610094575b600080fd5b610060600480360381019061005b91906103d1565b6100c5565b005b61007c600480360381019061007791906103d1565b61025c565b60405161008b9392919061046d565b60405180910390f35b6100ae60048036038101906100a991906103d1565b6102a6565b6040516100bc9291906104a4565b60405180910390f35b600073ffffffffffffffffffffffffffffffffffffffff1660008083815260200190815260200160002060000160009054906101000a900473ffffffffffffffffffffffffffffffffffffffff1673ffffffffffffffffffffffffffffffffffffffff1614610169576040517f08c379a0000000000000000000000000000000000000000000000000000000008152600401610160906104ed565b60405180910390fd5b60405180606001604052803373ffffffffffffffffffffffffffffffffffffffff1681526020018281526020014281525060008083815260200190815260200160002060008201518160000160006101000a81548173ffffffffffffffffffffffffffffffffffffffff021916908373ffffffffffffffffffffffffffffffffffffffff1602179055506020820151816001015560408201518160020155905050803373ffffffffffffffffffffffffffffffffffffffff167f5523c64caf0be0edf50a349a2c2bc2685c38256701957cb43dd578a9e22e109c42604051610251919061050d565b60405180910390a350565b60006020528060005260406000206000915090508060000160009054906101000a900473ffffffffffffffffffffffffffffffffffffffff16908060010154908060020154905083565b60008060008060008581526020019081526020016000206040518060600160405290816000820160009054906101000a900473ffffffffffffffffffffffffffffffffffffffff1673ffffffffffffffffffffffffffffffffffffffff1673ffffffffffffffffffffffffffffffffffffffff168152602001600182015481526020016002820154815250509050600073ffffffffffffffffffffffffffffffffffffffff16816000015173ffffffffffffffffffffffffffffffffffffffff1614156103a8576040517f08c379a000000000000000000000000000000000000000000000000000000000815260040161039f906104cd565b60405180910390fd5b806000015181604001519250925050915091565b6000813590506103cb816105d1565b92915050565b6000602082840312156103e357600080fd5b60006103f1848285016103bc565b91505092915050565b61040381610539565b82525050565b6104128161054b565b82525050565b6000610425601383610528565b91506104308261057f565b602082019050919050565b6000610448601783610528565b9150610453826105a8565b602082019050919050565b61046781610575565b82525050565b600060608201905061048260008301866103fa565b61048f6020830185610409565b61049c604083018461045e565b949350505050565b60006040820190506104b960008301856103fa565b6104c6602083018461045e565b9392505050565b600060208201905081810360008301526104e681610418565b9050919050565b600060208201905081810360008301526105068161043b565b9050919050565b6000602082019050610522600083018461045e565b92915050565b600082825260208201905092915050565b600061054482610555565b9050919050565b6000819050919050565b600073ffffffffffffffffffffffffffffffffffffffff82169050919050565b6000819050919050565b7f446f63756d656e74206e6f74207369676e656400000000000000000000000000600082015250565b7f446f63756d656e7420616c7265616479207369676e6564000000000000000000600082015250565b6105da8161054b565b81146105e557600080fd5b5056fea2646970667358221220579ffccec12e43aa8a561c0f752b7abd01f530ed6f631367f0a2b29f95ba020664736f6c63430008040033",
  "linkReferences": {},
  "deployedLinkReferences": {}
}